S0140000636F6E74726F6C426F7856312E737265635F
S11300000C945A000C9477000C9477000C947700AD
S11300100C9477000C9477000C9477000C9479007E
S11300200C9477000C9477000C9477000C94770070
S11300300C9477000C9477000C9477000C94770060
S11300400C9477000C9477000C9413020C947700B2
S11300500C9477000C9477000C9477000C94770040
S11300600C9477000C9477000C9477000C94770030
S11300700C9439020C9477000C9477000C9477005C
S11300800C9477000C9477000C9477000C94770010
S11300900C9477000C9477000C9477000C94770000
S11300A00C9477000C9477000C9477000C947700F0
S11300B00C94770011241FBECFEFD8E0DEBFCDBF74
S11300C011E0A0E0B1E0E0EEF8E002C005900D928E
S11300D0A630B107D9F722E0A6E0B1E001C01D9235
S11300E0A830B207E1F70E945F020C946E040C94EE
S11300F000001F920F920FB60F9211248F938091DC
S113010006018F5F809306018F910F900FBE0F90B1
S11301101F90189582E08093B00095E09093B10011
S113012093E69093B300809370000895CF92DF928A
S1130130EF92FF92E0E7F0E080818D7F80838091F1
S11301400601882309F441C020E233E0829F600164
S1130150839FD00C1124E0910001F09101013097AC
S113016091F120E00D2C000CEE08FF0880819181B4
S1130170A281B381AC01BD014150510961097109EA
S11301804E3F5F4F6F4F7F4F90F4C816D906EA0673
S1130190FB0628F0108211821282138208C08C1987
S11301A09D09AE09BF0980839183A283B3832F5F26
S11301B0E22FF0E0EE0FFF1FE050FF4F0190F081BF
S11301C0E02D309799F610920601E0E7F0E0808187
S11301D082608083FF90EF90DF90CF90089510921B
S11301E0C50087E68093C40088E98093C10086E057
S11301F08093C2000895549A5C98E1ECF0E0808109
S1130200877F8083808180688083519808951092CD
S1130210CD0087E68093CC0088E98093C90086E00E
S11302208093CA000895259A2D9AE9ECF0E0808124
S11302308860808380818F77808308951092D900AD
S113024088E48093D800089584E98093DC00ECED81
S1130250F0E0808184FDFDCF089594EA9093DC0062
S1130260ECEDF0E090819923ECF79091D900987F20
S1130270983029F09091D900987F9031B9F4809307
S1130280DB0084E88093DC00ECEDF0E080818823DF
S1130290ECF78091D900887F883151F09091D90092
S11302A0987F81E0903429F480E0089581E00895F6
S11302B080E008958093DB0084E88093DC00ECED1B
S11302C0F0E080818823ECF79091D900987F81E059
S11302D0983209F480E0089584EC8093DC00ECED1E
S11302E0F0E080818823ECF78091DB00089584E8B6
S11302F08093DC00ECEDF0E080818823ECF78091C2
S1130300DB0008958EE90E942D018FE99FE001979B
S1130310F1F700C000008CEA0E945A018FE99FE0C7
S11303200197F1F700C0000080E00E945A018FE9B4
S11303309FE00197F1F700C000000E9424018FE9BB
S11303409FE00197F1F700C000008EE90E942D01A3
S11303508FE99FE00197F1F700C000008EEE0E9444
S11303605A018FE99FE00197F1F700C000000E9455
S113037024010895CF93DF938EE90E942D018AEA28
S11303800E945A018FE90E942D010E946C01C82F1E
S11303900E947701D82F0E9424012C2F30E0CC2317
S11303A0D4F4322F22272D2B40E050E061E070E09E
S11303B0421B530B61097109689416F8759567958A
S11303C0579547951694D1F72BEF2403C001259F29
S11303D0900D112410C0322F2227C9018D2B880FB4
S11303E0892F881F990B91959C01220F331F220F8F
S11303F0331F820F931FDF91CF910895109207014D
S113040081E0809325010E9408020E940E02089553
S1130410569A83EC84BD82E085BD089584B58F73BC
S113042084BD5E9808951F920F920FB60F92112407
S11304308F939F93EF93FF93809109019091C6004E
S1130440E82FF0E0E556FE4F908391E090930A0187
S1130450833618F01092090103C08F5F809309015D
S1130460FF91EF919F918F910F900FBE0F901F906E
S113047018951F920F920FB60F9211248F939F938A
S1130480EF93FF93809108019091CE00E82FF0E064
S1130490EA5CFE4F908391E090930A01833618F052
S11304A01092080103C08F5F80930801FF91EF91C0
S11304B09F918F910F900FBE0F901F9018950E94DF
S11304C08A000E9473020E94FE0178940E94EF0049
S11304D00E9407010E94FB000E9413010E949600E3
S11304E00E948702FBCF82E080930B01579A5F98AA
S11304F080E492E4AFE0B0E08093040290930502BC
S1130500A0930602B09307020E944E030895EF924F
S1130510FF920F931F93CF93DF9380912501811155
S113052010C080E492E4AFE0B0E0809304029093C2
S11305300502A0930602B093070282E080930B01A8
S113054097C080910B01813009F448C020F08230BB
S113055009F09DC08DC00E94760380E00E9447048C
S11305600E947D030E94E40300913401109135013F
S113057040910302ADE1B1E0C5E2D1E00F2EF8E213
S1130580EF2EF1E0FF2EF02D64E371E02D913D910B
S11305902017310750F4F701819191918217930745
S11305A008F44F5FE617F707B9F7AC17BD0771F703
S11305B0409303024D3020F083E080939A0102C0FF
S11305C010929A01440F440F440F80919A01482BD2
S11305D040939A0182E080930B0159C00E947603F4
S11305E00E94E4030091340110913501409103020B
S11305F0ADE1B1E0C5E2D1E00F2EF8E2EF2EF1E07B
S1130600FF2EF02D64E371E02D913D912017310709
S113061050F4F701819191918217930708F44F5F89
S1130620E617F707B9F7AC17BD0771F74093030254
S11306304D3020F083E080939A0102C010929A0119
S1130640440F440F440F80919A01482B40939A0120
S113065082E080930B0180E492E4AFE0B0E0809309
S1130660040290930502A0930602B09307020FC000
S11306708091040290910502A0910602B0910702B4
S1130680892B8A2B8B2B19F481E080930B01DF914A
S1130690CF911F910F91FF90EF9008950E941E013A
S11306A00E94820108958F70806C80937C0086E89C
S11306B080937A0024E030E040E050E0EAE7F0E0A4
S11306C0A8E7B0E0908190649083908194FFFDCF7F
S11306D08D919C911197480F591F2150310991F721
S11306E0CA01969587959695879508950E94BA01B3
S11306F090932701809326010895FF920F931F93EF
S1130700CF93DF9380E00E945303C1E1D1E00F2E29
S1130710FBE1FF2EF02D9C01F29EC001F39E900D93
S1130720112403EC12E0B8010E945A04798368830F
S113073081E00E9453039C01F29EC001F39E900D40
S11307401124B8010E945A047B836A8382E00E94C8
S113075053039C01F29EC001F39E900D1124B80135
S11307600E945A047D836C8383E00E9453039C019E
S1130770F29EC001F39E900D1124B8010E945A0408
S11307807F836E8384E00E9453039C01F29EC00128
S1130790F39E900D1124B8010E945A04798768874A
S11307A085E00E9453039C01F29EC001F39E900DCC
S11307B01124B8010E945A047B876A87DF91CF9184
S11307C01F910F91FF900895CF92DF92FF920F93A4
S11307D01F93CF93DF9384E00E9453038C0180E046
S11307E00E945303CDE1D1E0081B190B0F2EFBE14E
S11307F0FF2EF02DF09EC001F19E900D112403EC0C
S113080012E0B8010E945A047983688385E00E944B
S113081053036C0181E00E945303C81AD90AFC9C5B
S1130820C001FD9C900D1124B8010E945A047B83E1
S11308306A8384E00E9453036C0182E00E945303A4
S1130840C81AD90AFC9CC001FD9C900D1124B80162
S11308500E945A047D836C8385E00E9453036C01DB
S113086083E00E945303C81AD90AFC9CC001FD9C72
S1130870900D1124B8010E945A047F836E83DF9186
S1130880CF911F910F91FF90DF90CF900895CF9358
S1130890C82F86E00E945303CC2351F045E1489FC2
S11308A09001499F300D1124309300022093FF01E1
S11308B0CF910895AA1BBB1B51E107C0AA1FBB1F00
S11308C0A617B70710F0A61BB70B881F991F5A95D8
S11308D0A9F780959095BC01CD010895F894FFCFB8
S10908E004020C010000FB
S9030000FC
