:100000000C945A000C9477000C9477000C947700B1
:100010000C9477000C9477000C9477000C94790082
:100020000C9477000C9477000C9477000C94770074
:100030000C9477000C9477000C9477000C94770064
:100040000C9477000C9477000C941D030C947700AB
:100050000C9477000C9477000C9477000C94770044
:100060000C9477000C9477000C9477000C94770034
:100070000C944F030C9477000C9477000C94770049
:100080000C9477000C9477000C9477000C94770014
:100090000C9477000C9477000C9477000C94770004
:1000A0000C9477000C9477000C9477000C947700F4
:1000B0000C94770011241FBECFEFD8E0DEBFCDBF78
:1000C00011E0A0E0B1E0EEE3F7E102C005900D928F
:1000D000A231B107D9F723E0A2E1B1E001C01D923E
:1000E000AC33B207E1F70E9475030C949D0B0C949E
:1000F00000001F920F920FB60F9211248F938091E0
:1001000012018F5F809312018F910F900FBE0F909D
:100110001F901895CF92DF92EF92FF92E0E7F0E008
:1001200080818D7F808380911201882309F441C0F2
:1001300020E233E0829F6001839FD00C1124E09184
:100140000C01F0910D01309791F120E00D2C000C85
:10015000EE08FF0880819181A281B381AC01BD01CD
:1001600041505109610971094E3F5F4F6F4F7F4FF9
:1001700090F4C816D906EA06FB0628F01082118210
:100180001282138208C08C199D09AE09BF098083B1
:100190009183A283B3832F5FE22FF0E0EE0FFF1F66
:1001A000E45FFE4F0190F081E02D309799F61092B8
:1001B0001201E0E7F0E0808182608083FF90EF90A1
:1001C000DF90CF9008951092C50087E68093C40019
:1001D00088E98093C10086E08093C2000895549A14
:1001E0005C98E1ECF0E08081877F8083808180688B
:1001F0008083519808951092CD0087E68093CC00BB
:1002000088E98093C90086E08093CA000895259A02
:100210002D9AE9ECF0E080818860808380818F777F
:100220008083089582E08093B00095E09093B100C0
:1002300093E69093B300809370000E94E3000E94C5
:10024000FB000E94EF000E9407010895E8ECF0E037
:10025000908195FFFDCF8093CE008FE39FE10197C2
:10026000F1F700C0000008950F931F93CF93DF9321
:10027000EC01662369F06150062F10E00F5F1F4FFD
:10028000080F191F89910E942601C017D107D1F7C5
:10029000DF91CF911F910F91089584E98093DC0045
:1002A000ECEDF0E0808184FDFDCF089594EA909319
:1002B000DC00ECEDF0E090819923ECF79091D9000F
:1002C000987F983029F09091D900987F9031B9F4B7
:1002D0008093DB0084E88093DC00ECEDF0E080812B
:1002E0008823ECF78091D900887F883151F0909174
:1002F000D900987F81E0903429F480E0089581E06E
:10030000089580E008958093DB0084E88093DC000A
:10031000ECEDF0E080818823ECF79091D900987F94
:1003200081E0983209F480E0089584EC8093DC0049
:10033000ECEDF0E080818823ECF78091DB000895FC
:1003400084E88093DC00ECEDF0E080818823ECF71A
:100350008091DB000895CF93DF938EE90E945601D0
:100360008AEA0E9483018FE90E9456010E9495014A
:10037000C82F0E94A001D82F0E944D012C2F30E0E1
:10038000CC23D4F4322F22272D2B40E050E061E023
:1003900070E0421B530B61097109689416F875955A
:1003A0006795579547951694D1F72BEF2403C00115
:1003B000259F900D112410C0322F2227C9018D2BAB
:1003C000880F892F881F990B91959C01220F331F4D
:1003D000220F331F820F931FDF91CF910895109248
:1003E000130181E0809337010E94EF020E94F50221
:1003F0000895809113018130F1F138F0823009F4D1
:10040000ACC0833009F46DC0089580910B03811155
:1004100007C081E0809313010E94FA021092370115
:1004200080910B03823069F483E080931301809103
:1004300003010E94FF028091030180932201109228
:10044000370180910B03833009F0C8C082E08093AC
:1004500013010E94F50281E08093370180E492E469
:10046000AFE0B0E080931E0190931F01A0932001A4
:10047000B0932101089580910B03813039F41092DB
:1004800013010E94F50281E08093370180910B03F4
:10049000823069F483E080931301809103010E940C
:1004A000FF02809103018093220110923701809115
:1004B0000B03833009F092C082E0809313010E9405
:1004C000F50281E08093370180E492E4AFE0B0E090
:1004D00080931E0190931F01A0932001B0932101EE
:1004E00008958091030190912201981731F00E94A4
:1004F000FF02809103018093220180910B038111FF
:1005000007C081E0809313010E94FA021092370124
:1005100080910B03813039F4109213010E94F5028F
:1005200081E08093370180910B03833009F056C03E
:1005300082E0809313010E94F50281E080933701ED
:1005400080E492E4AFE0B0E080931E0190931F013D
:10055000A0932001B0932101089580911E019091F4
:100560001F01A0912001B0912101892B8A2B8B2B97
:1005700071F40E94040380E492E4AFE0B0E0809361
:100580001E0190931F01A0932001B093210180913F
:100590000B03811107C081E0809313010E94FA02CE
:1005A0001092370180910B03813039F410921301BE
:1005B0000E94F50281E08093370180910B03823025
:1005C00069F483E080931301809103010E94FF028C
:1005D0008091030180932201109237010895569A69
:1005E00083EC84BD82E085BD089584B58F7384BD9E
:1005F0005E98089584B58F7384BD5E9A089594B50E
:10060000906C94BD87BD08959BB180E489278BB918
:10061000089580911801882319F0813031F00AC0C3
:100620000E94F9010E94CB0308950E94D9051092FF
:10063000180108951092180108951F920F920FB695
:100640000F9211248F939F93AF93BF93EF93FF93D8
:1006500080911501A6ECB0E09C91E82FF0E0E1520A
:10066000FE4F90839C91E0911701F0E0EB58FD4F15
:10067000908391E090931801853918F0109215013C
:1006800003C08F5F80931501FF91EF91BF91AF91F0
:100690009F918F910F900FBE0F901F9018951F92F2
:1006A0000F920FB60F9211248F939F93EF93FF93A6
:1006B000809116019091CE00E82FF0E0E85BFE4FAC
:1006C000908391E090931801853918F010921601EB
:1006D00003C08F5F80931601FF91EF919F918F91DF
:1006E0000F900FBE0F901F901895EAE3F1E088E598
:1006F00097E09183808388E992E19383828388EDF8
:100700009DE19583848388E199E29783868388E5D8
:1007100094E39187808780E89EE39387828780EFC8
:1007200095E5958784870E9412010E94B9030E9473
:10073000EF0178940E94E3000E94FB000E94EF000A
:100740000E94070181E080930B0382E38093030101
:100750000E9412010E94EF010E94B9038FEF0E94D4
:10076000260178940E94D9050E948A000E940903FC
:10077000F9CF82E080931A0180E492E4AFE0B0E028
:1007800080930D0390930E03A0930F03B093100377
:100790000E94AA040895EF92FF920F931F93CF93A4
:1007A000DF9380913701811110C080E492E4AFE0C3
:1007B000B0E080930D0390930E03A0930F03B093CA
:1007C000100382E080931A01A8C080911A01813041
:1007D00009F455C020F0823009F0B5C09EC01092D7
:1007E00019010E94CE0480E00E94B7050E94D50442
:1007F0000E9448050091460110914701AFE2B1E027
:10080000C7E3D1E040E00F2EFAE3EF2EF1E0FF2E38
:10081000F02D66E471E02D913D912017310750F4E1
:10082000F701819191918217930708F44F5FE617C2
:10083000F707B9F7AC17BD0771F740930C034D30BC
:1008400020F087E08093DE0102C01092DE01440FA9
:10085000440F440F8091DE01482B4093DE0182E07B
:1008600080931A0180EC96ECADE2B0E080930D032A
:1008700090930E03A0930F03B093100364C0809174
:1008800019018F5F809319010E94CE040E944805D0
:100890000091460110914701AFE2B1E0C7E3D1E01A
:1008A00040E00F2EFAE3EF2EF1E0FF2EF02D66E48C
:1008B00071E02D913D912017310750F4F70181919E
:1008C00091912817390708F04F5FE617F707B9F736
:1008D000AC17BD0771F740930C034D3020F087E053
:1008E0008093DE0102C01092DE01440F440F440FDA
:1008F0008091DE01482B4093DE0182E080931A0153
:1009000080E492E4AFE0B0E080930D0390930E0397
:10091000A0930F03B093100316C080910D03909124
:100920000E03A0910F03B0911003892B8A2B8B2B00
:1009300051F4809119018A3019F410921A0103C000
:1009400081E080931A01DF91CF911F910F91FF9069
:10095000EF90089508958F70806C80937C0086E8F6
:1009600080937A0024E030E040E050E0EAE7F0E0F5
:10097000A8E7B0E0908190649083908194FFFDCFD0
:100980008D919C911197480F591F2150310991F772
:10099000CA01969587959695879508950E94AB0113
:1009A00090933901809338010895CF93DF9380E0CD
:1009B0000E94AB04C3E2D1E0BC0180E090E00E9461
:1009C0007A0A21E93DEE4DEC51E40E94E00A0E94D2
:1009D0004B0A7983688381E00E94AB04BC0180E00C
:1009E00090E00E947A0A21E93DEE4DEC51E40E942C
:1009F000E00A0E944B0A7B836A8382E00E94AB0478
:100A0000BC0180E090E00E947A0A21E93DEE4DECC5
:100A100051E40E94E00A0E944B0A7D836C8383E0CC
:100A20000E94AB04BC0180E090E00E947A0A21E9B8
:100A30003DEE4DEC51E40E94E00A0E944B0A7F8398
:100A40006E8384E00E94AB04BC0180E090E00E94D1
:100A50007A0A21E93DEE4DEC51E40E94E00A0E9441
:100A60004B0A7987688785E00E94AB04BC0180E06F
:100A700090E00E947A0A21E93DEE4DEC51E40E949B
:100A8000E00A0E944B0A7B876A87DF91CF91089525
:100A90000F931F93CF93DF9384E00E94AB04EC018C
:100AA00080E00E94AB040FE211E0BE01681B790BED
:100AB00080E090E00E947A0A21E93DEE4DEC51E49D
:100AC0000E94E00A0E944B0AF8017183608385E06E
:100AD0000E94AB04EC0181E00E94AB04BE01681BE4
:100AE000790B80E090E00E947A0A21E93DEE4DEC1E
:100AF00051E40E94E00A0E944B0AF801738362836A
:100B000084E00E94AB04EC0182E00E94AB04BE01D1
:100B1000681B790B80E090E00E947A0A21E93DEEA3
:100B20004DEC51E40E94E00A0E944B0AF8017583E3
:100B3000648385E00E94AB04EC0183E00E94AB0477
:100B4000BE01681B790B80E090E00E947A0A21E9DF
:100B50003DEE4DEC51E40E94E00A0E944B0AF80180
:100B600077836683DF91CF911F910F910895CF9383
:100B7000C82F86E00E94AB04CC2359F045E1489F82
:100B80009001499F300D11243093050120930401F9
:100B90000EC020910401309105014BE0429FC0013D
:100BA000439F900D11249093050180930401CF91F0
:100BB0000895CF92DF92EF92FF920F931F93CF93FE
:100BC000DF9380911B01813009F487C1843009F4DF
:100BD0009BC2823009F458C3833009F4EAC34091C0
:100BE0001401242F30E08091150190E0821B930BBB
:100BF0008A569F4F66E970E00E94750B03970CF4CC
:100C000041C4F901E152FE4F808190910B01282FE0
:100C1000207F921334C48F7080931403453918F0E9
:100C20001092140103C04F5F40931401823009F405
:100C300079C018F4813041F025C4843009F4ECC146
:100C4000873009F4D3C21EC440911401E42FF0E0B0
:100C5000E152FE4F8081582F529556955770209142
:100C6000000152133AC0282F2F7160E1269F900196
:100C700011243093130320931203453918F0109276
:100C8000140103C04F5F40931401E0911401F0E0A0
:100C9000E152FE4F808182958F70280F311D309375
:100CA000020120930101E7E1F3E09F5F9083C90116
:100CB0000196929582958F7089279F70892770E29F
:100CC000579F800D112481832F5F80910A0190E14D
:100CD000299F800D1124828315C0E7E1F3E09F5F17
:100CE00090838183453918F01092140103C04F5F3F
:100CF00040931401E0911401F0E0E152FE4F808135
:100D00008093190363E087E193E00E9434018091AE
:100D10001401853918F010921401B4C38F5F8093C9
:100D20001401B0C323E030E030930901209308019F
:100D300029E030E0309313032093120380911401D3
:100D4000E82FF0E0E152FE4F2081322F32953695A8
:100D5000377040910001341389C0220F220F220FF7
:100D6000853980F08091DF01482F42954695477084
:100D7000240F20931103877010921C0180931D0192
:100D800080E017C08F5FE82FF0E0E152FE4F408116
:100D9000542F529556955770250F20931103477085
:100DA00010921C0140931D01853918F01092140116
:100DB00003C08F5F80931401E7E1F3E09E5F9083AF
:100DC0003295330F307E822F869586958695830FD8
:100DD0008183822F8295880F807E82838091070194
:100DE0008D5F84838091010190910201AC01529545
:100DF00042954F7045275F704527340F35838295A4
:100E0000807F213019F0223051F011C0209104016F
:100E10003091050130931603209315030CC02091E7
:100E2000030130E0309316032093150304C01092A1
:100E30001603109215032091150330911603E7E174
:100E4000F3E0932F92959F70890F8683C901929545
:100E500082958F7089279F708927878380910601EB
:100E600040E1249F800D1124808737C0E7E1F3E043
:100E70009E5F90832183853998F08091DF01982FC0
:100E8000907E90931903877010921C0180931D012E
:100E900084E090E0909313038093120380E01AC0E3
:100EA0008F5FE82FF0E0E152FE4F9081292F207EE6
:100EB00020931903977010921C0190931D0124E058
:100EC00030E03093130320931203853918F0109209
:100ED000140103C08F5F8093140181E080931B0194
:100EE000E0911401F0E0E152FE4F208180911C015D
:100EF00090911D01820F911D90931D0180931C0103
:100F000020911203309113032530310558F0E7E1A9
:100F1000F3E09C012F5F3F4F9281930F92838F5F8D
:100F2000838306C0E7E1F3E02281920F92838383FB
:100F30006091120387E193E00E94340180910801DF
:100F40009091090101969093090180930801809185
:100F50001401853928F010921401C6E9D0E01DC0B3
:100F60008F5F80931401F9CFF901E152FE4F808128
:100F70000E942601809108019091090101969093A9
:100F800009018093080180911401853918F01092AD
:100F9000140103C08F5F809314012091140130E08D
:100FA0008091150190E0821B930B8A569F4FBE01E2
:100FB0000E94750B18161906A4F480911C019091DB
:100FC0001D01AC01440F551F440F551F840F951F81
:100FD000049640910801509109014817590720F2E1
:100FE00014C080911C0190911D019C01220F331FA0
:100FF000220F331F820F931F049620910801309116
:1010000009012817390708F43DC210921B0180918D
:101010000A010E94260136C223E030E03093090124
:101020002093080140911401E42FF0E0E152FE4FBB
:101030008081582F52955695577020910001521378
:101040004EC0282F2F7160E1269F90011124453951
:1010500018F01092140103C04F5F40931401E09107
:101060001401F0E0E152FE4F808182958F70280FCD
:10107000311D3093130320931203E7E1F3E09F5FE8
:101080009083C901929582958F7089279F708927D7
:1010900070E2579F800D11248183822F8295807F7B
:1010A000828380910101909102012817390761F52F
:1010B0008FEA83838EEF8483ECE1F3E029E333E06E
:1010C00081E08193E217F307E1F7E7E1F3E08FEACC
:1010D00082A38EEF83A380910A0184A377C0E7E106
:1010E000F3E09C5F90838183453918F010921401DE
:1010F00003C04F5F40931401E0911401F0E0E1520E
:10110000FE4F80818093190384E080931B01C0917E
:101110001501D0E020911401CE01821B91098A565D
:101120009F4F66E970E00E94750B02970CF441C076
:10113000E0910801F0910901E432F10508F040C0A6
:10114000E95EFC4F0F2EFBE3CF2EF3E0DF2EF02DF8
:1011500040E00F2EF6E9EF2EF12CF02D253910F49A
:101160002F5F01C0242F822F90E0DC01A152BE4FDF
:101170003C9131938F0107511340BE01681B790BDD
:10118000CB018A569F4FB7010E94750B02973CF422
:101190002093140110930901009308010AC0EC1573
:1011A000FD05E1F620931401109309010093080155
:1011B00007C08091080190910901849708F462C1E9
:1011C00010921B0180910A0180933B0365E287E145
:1011D00093E00E94340180911401853918F0109237
:1011E000140150C18F5F809314014CC123E030E0A3
:1011F000309309012093080140911401E42FF0E09D
:10120000E152FE4F8081582F52955695577020918C
:1012100000015213B9C0282F2F7170E1279F900150
:101220001124453918F01092140103C04F5F409308
:101230001401E0911401F0E0E152FE4F4081842F4F
:1012400082958F70280F311D309313032093120362
:10125000E7E1F3E0995F9083C901929582958F70E1
:1012600089279F70892760E2569F800D1124818312
:1012700042832115310541F08091010190910201D5
:101280002817390709F095C082E080931B0100916F
:10129000150110E020911401C801821B91098A56A2
:1012A0009F4F66E970E00E94750B0297DCF1E091B8
:1012B0000801F0910901E630F105D8F5EF01C95EAA
:1012C000DC4F40E00F2EF6E9EF2EF12CF02D253902
:1012D00010F42F5F01C0242F822F90E0DC01A15277
:1012E000BE4F3C9139933196B801681B790BCB0105
:1012F0008A569F4FB7010E94750B02973CF42093CA
:101300001401F0930901E09308010CC0E630F105E7
:10131000F1F62093140186E090E090930901809308
:10132000080107C08091080190910901069708F40F
:10133000A9C010921B01E7E1F3E083819281282F7D
:1013400022952F7070E1979F200D11242093110397
:1013500090E0982F88279295907F348140E1349FC8
:10136000800D911D1124358132953F70830F911DA1
:101370009093160380931503213009F070C0909369
:101380000501809304016BC0E7E1F3E0995F90836E
:101390008183453918F01092140103C04F5F4093C8
:1013A0001401E0911401F0E0E152FE4F808180933E
:1013B000190382E080931B010091150110E0209138
:1013C0001401C801821B91098A569F4F66E970E09B
:1013D0000E94750B0297DCF1E0910801F091090180
:1013E000E630F105D0F5EF01C95EDC4F40E00F2E8D
:1013F000F6E9EF2EF12CF02D253910F42F5F01C006
:10140000242F822F90E0DC01A152BE4F3C913993F2
:101410003196B801681B790BCB018A569F4FB701F3
:101420000E94750B02973CF420931401F09309017C
:10143000E09308010CC0E630F105F1F620931401A9
:1014400086E090E0909309018093080106C08091A6
:101450000801909109010697A8F010921B0166E01F
:1014600087E193E00E94340180911401853918F0DE
:101470001092140107C08F5F8093140103C04F5F67
:1014800040931401DF91CF911F910F91FF90EF9046
:10149000DF90CF9008950E94BF0A88F09F5798F080
:1014A000B92F9927B751B0F0E1F0660F771F881F69
:1014B000991F1AF0BA95C9F714C0B13091F00E9483
:1014C000D90AB1E008950C94D90A672F782F88279C
:1014D000B85F39F0B93FCCF3869577956795B395AA
:1014E000D9F73EF490958095709561957F4F8F4F19
:1014F0009F4F0895E89409C097FB3EF4909580951E
:10150000709561957F4F8F4F9F4F9923A9F0F92FC9
:1015100096E9BB279395F695879577956795B79547
:10152000F111F8CFFAF4BB0F11F460FF1BC06F5F2D
:101530007F4F8F4F9F4F16C0882311F096E911C03F
:10154000772321F09EE8872F762F05C0662371F060
:1015500096E8862F70E060E02AF09A95660F771F74
:10156000881FDAF7880F9695879597F9089557FDA4
:101570009058440F551F59F05F3F71F04795880F01
:1015800097FB991F61F09F3F79F087950895121698
:1015900013061406551FF2CF4695F1DF08C0161644
:1015A00017061806991FF1CF8695710561050894F5
:1015B0000895E894BB2766277727CB0197F908950C
:1015C0000E94F30A0C94640B0E94560B38F00E94A0
:1015D0005D0B20F0952311F00C944D0B0C94530BE4
:1015E00011240C94DA0A0E94B70A70F3959FC1F394
:1015F000950F50E0551F629FF001729FBB27F00DC1
:10160000B11D639FAA27F00DB11DAA1F649F662715
:10161000B00DA11D661F829F2227B00DA11D621F64
:10162000739FB00DA11D621F839FA00D611D221F1E
:10163000749F3327A00D611D231F849F600D211D02
:10164000822F762F6A2F11249F5750409AF0F1F085
:1016500088234AF0EE0FFF1FBB1F661F771F881FEE
:1016600091505040A9F79E3F510580F00C944D0BCE
:101670000C94DA0A5F3FE4F3983ED4F386957795AD
:101680006795B795F795E7959F5FC1F7FE2B880F94
:10169000911D9695879597F9089597F99F6780E82A
:1016A00070E060E008959FEF80EC089500240A94B4
:1016B0001616170618060906089500240A9412162D
:1016C0001306140605060895092E0394000C11F460
:1016D000882352F0BB0F40F4BF2B11F460FF04C00D
:1016E0006F5F7F4F8F4F9F4F089597FB072E16F424
:1016F000009407D077FD09D00E94890B07FC05D024
:101700003EF4909581959F4F0895709561957F4F18
:101710000895AA1BBB1B51E107C0AA1FBB1FA61738
:10172000B70710F0A61BB70B881F991F5A95A9F78A
:0E17300080959095BC01CD010895F894FFCFEF
:10173E0001AA00AADADA0650030009A00D031E0161
:02174E00000099
:00000001FF
