:100000000C945A000C9477000C9477000C947700B1
:100010000C9477000C9477000C9477000C94770084
:100020000C9477000C9477000C9477000C94770074
:100030000C9477000C9477000C9477000C94770064
:100040000C9477000C9477000C94D3000C947700F8
:100050000C9477000C9477000C9477000C94770044
:100060000C9477000C9477000C9477000C94770034
:100070000C94F9000C9477000C9477000C947700A2
:100080000C9477000C9477000C9477000C94770014
:100090000C9477000C9477000C9477000C94770004
:1000A0000C9477000C9477000C9477000C947700F4
:1000B0000C94770011241FBECFEFD8E0DEBFCDBF78
:1000C00011E0A0E0B1E0ECEAF3E002C005900D928F
:1000D000A630B107D9F721E0A6E0B1E001C01D923A
:1000E000A63FB207E1F70E941F010C94D4010C94C3
:1000F00000001092C50087E68093C40088E98093D1
:10010000C10086E08093C2000895549A5C98E1ECA7
:10011000F0E08081877F8083808180688083519830
:1001200008951092CD0087E68093CC0088E98093F3
:10013000C90086E08093CA000895259A2D9AE9ECBB
:10014000F0E080818860808380818F77808308954C
:10015000E8ECF0E0908195FFFDCF8093CE0008950C
:10016000CF93DF93EC018881882361F021960E9470
:10017000A8008FE39FE10197F1F700C0000089918B
:100180008111F5CFDF91CF910895809109018823E6
:1001900049F0813029F40E947401109209010895F8
:1001A0001092090108951F920F920FB60F92112419
:1001B0008F939F93EF93FF93809108019091C600D6
:1001C000E82FF0E0E857FE4F908391E0909309010B
:1001D000833618F01092080103C08F5F80930801E6
:1001E000FF91EF919F918F910F900FBE0F901F90F5
:1001F00018951F920F920FB60F9211248F939F9311
:10020000EF93FF93809106019091CE00E82FF0E0EC
:10021000ED5DFE4F908391E090930901833618F0D5
:100220001092060103C08F5F80930601FF91EF914A
:100230009F918F910F900FBE0F901F9018957894FB
:100240000E9479000E9491000E9485000E949D00FA
:100250000E94C500FDCFE3EFF1E0809105018F5FC3
:1002600080832091010130910201C901019692958C
:1002700082958F7089279F7089279091000140E2B5
:10028000949F800D112481832F5F8091040190E160
:10029000299F800D112482830895E0EFF1E0809181
:1002A00005018B5F808380910101909102019C0187
:1002B000369527952183209103019091040130E226
:1002C000239F900D1124879588278795890F828316
:1002D000089580910701833618F010920701089560
:1002E0008F5F809307010895CF93909108018091CB
:1002F0000701282F30E0692F70E0A9014D5F5F4FA3
:10030000641775071CF4981708F04CC0F901E857FA
:10031000FE4FC0819C2F907F2091050129133FC083
:100320000E946901E0910701F0E0E857FE4F40812B
:10033000242F207E30E08091000150E2859FC00193
:1003400011242817390771F5CF70C13059F54F7155
:1003500020E1429FC001112490930201809301018A
:100360000E946901E0910701F0E0E857FE4F20810B
:1003700022952F708091010190910201820F911DB1
:1003800090930201809301010E9469010E942B0158
:100390000E944D0183EF91E00E94B00003C08F5F87
:0C03A00080930701CF910895F894FFCFDF
:0603AC0001C1000209A0DE
:00000001FF
