:100000000C945A000C9477000C9477000C947700B1
:100010000C9477000C9477000C9477000C94790082
:100020000C9477000C9477000C9477000C94770074
:100030000C9477000C9477000C9477000C94770064
:100040000C9477000C9477000C9402030C947700C6
:100050000C9477000C9477000C9477000C94770044
:100060000C9477000C9477000C9477000C94770034
:100070000C9428030C9477000C9477000C94770070
:100080000C9477000C9477000C9477000C94770014
:100090000C9477000C9477000C9477000C94770004
:1000A0000C9477000C9477000C9477000C947700F4
:1000B0000C94770011241FBECFEFD8E0DEBFCDBF78
:1000C00011E0A0E0B1E0E0E6FCE002C005900D9296
:1000D000A630B107D9F724E0A6E0B1E001C01D9237
:1000E000A633B207E1F70E944E030C942E060C943F
:1000F00000001F920F920FB60F9211248F938091E0
:1001000006018F5F809306018F910F900FBE0F90B5
:100110001F9018951092C50087E68093C40088E967
:100120008093C10086E08093C2000895549A5C9841
:10013000E1ECF0E08081877F80838081806880832C
:10014000519808951092CD0087E68093CC0088E9FD
:100150008093C90086E08093CA000895259A2D9A5D
:10016000E9ECF0E080818860808380818F778083F4
:10017000089582E08093B00095E09093B10093E6FB
:100180009093B300809370000E948A000E94A200A6
:100190000E9496000E94AE000895E8ECF0E0908185
:1001A00095FFFDCF8093CE0008950F931F93CF93BB
:1001B000DF93EC01662399F06150062F10E00F5F8A
:1001C0001F4F080F191F89910E94CD008FE39FE1F7
:1001D0000197F1F700C00000C017D107A1F7DF9128
:1001E000CF911F910F9108951092D90088E48093C8
:1001F000D800089584E98093DC00ECEDF0E0808184
:1002000084FDFDCF089594EA9093DC00ECEDF0E0DE
:1002100090819923ECF79091D900987F983029F03C
:100220009091D900987F9031B9F48093DB0084E8F5
:100230008093DC00ECEDF0E080818823ECF7809186
:10024000D900887F883151F09091D900987F81E062
:10025000903429F480E0089581E0089580E00895C5
:100260008093DB0084E88093DC00ECEDF0E080819B
:100270008823ECF79091D900987F81E0983209F4B7
:1002800080E0089584EC8093DC00ECEDF0E0808168
:100290008823ECF78091DB00089584E88093DC00EC
:1002A000ECEDF0E080818823ECF78091DB0008958D
:1002B0008EE90E9403018FE99FE00197F1F700C0EA
:1002C00000008CEA0E9430018FE99FE00197F1F76E
:1002D00000C0000080E00E9430018FE99FE001979C
:1002E000F1F700C000000E94FA008FE99FE001973B
:1002F000F1F700C000008EE90E9403018FE99FE042
:100300000197F1F700C000008EEE0E9430018FE9E6
:100310009FE00197F1F700C000000E94FA000895E5
:10032000CF93DF938EE90E9403018AEA0E94300195
:100330008FE90E9403010E944201C82F0E944D01D3
:10034000D82F0E94FA002C2F30E0CC23D4F4322F87
:1003500022272D2B40E050E061E070E0421B530B60
:1003600061097109689416F87595679557954795D1
:100370001694D1F72BEF2403C001259F900D112473
:1003800010C0322F2227C9018D2B880F892F881F7B
:10039000990B91959C01220F331F220F331F820F5F
:1003A000931FDF91CF9108951092070181E0809310
:1003B00026010E94D4020E94DA020895809107016A
:1003C0008130F1F138F0823009F4ACC0833009F4A7
:1003D0006DC0089580910302811107C081E0809370
:1003E00007010E94DF0210922601809103028230F1
:1003F00069F483E080930701809102020E94E40285
:1004000080910202809311011092260180910302D3
:10041000833009F0C8C082E0809307010E94DA02AD
:1004200081E08093260180E492E4AFE0B0E0809325
:100430000D0190930E01A0930F01B0931001089548
:1004400080910302813039F4109207010E94DA0290
:1004500081E08093260180910302823069F483E079
:1004600080930701809102020E94E40280910202BF
:10047000809311011092260180910302833009F0CC
:1004800092C082E0809307010E94DA0281E08093AB
:10049000260180E492E4AFE0B0E080930D019093F8
:1004A0000E01A0930F01B0931001089580910202F4
:1004B00090911101981731F00E94E402809102029C
:1004C0008093110180910302811107C081E0809324
:1004D00007010E94DF021092260180910302813001
:1004E00039F4109207010E94DA0281E0809326011C
:1004F00080910302833009F056C082E080930701A7
:100500000E94DA0281E08093260180E492E4AFE069
:10051000B0E080930D0190930E01A0930F01B09372
:100520001001089580910D0190910E01A0910F018D
:10053000B0911001892B8A2B8B2B71F40E94E90258
:1005400080E492E4AFE0B0E080930D0190930E015F
:10055000A0930F01B093100180910302811107C095
:1005600081E0809307010E94DF02109226018091B2
:100570000302813039F4109207010E94DA0281E00F
:100580008093260180910302823069F483E0809396
:100590000701809102020E94E4028091020280938E
:1005A0001101109226010895569A83EC84BD82E0D1
:1005B00085BD089584B58F7384BD5E98089584B514
:1005C0008F7384BD5E9A089594B5906C94BD87BD79
:1005D00008959BB180E489278BB9089580910B0120
:1005E000882319F0813031F00AC00E94DE010E9498
:1005F0006C0308950E943F0510920B01089510921C
:100600000B0108951F920F920FB60F9211248F9332
:100610009F93EF93FF9380910A019091C600E82F7A
:10062000F0E0E456FE4F908391E090930B01833607
:1006300018F010920A0103C08F5F80930A01FF91A6
:10064000EF919F918F910F900FBE0F901F90189573
:100650001F920F920FB60F9211248F939F93EF93D7
:10066000FF93809108019091CE00E82FF0E0E95CC3
:10067000FE4F908391E090930B01833618F0109217
:10068000080103C08F5F80930801FF91EF919F9154
:100690008F910F900FBE0F901F9018950E94B90078
:1006A0000E9458030E94D40178940E94EE02FDCF6C
:1006B00082E080930C01579A5F9880E492E4AFE067
:1006C000B0E08093050290930602A0930702B093D6
:1006D00008020E9433040895EF92FF920F931F9334
:1006E000CF93DF9380912601811110C080E492E4C2
:1006F000AFE0B0E08093050290930602A09307025A
:10070000B093080282E080930C0197C080910C01A5
:10071000813009F448C020F0823009F09DC08DC0BE
:100720000E945B0480E00E942C050E9462040E94EB
:10073000C904009135011091360140910402AEE1E7
:10074000B1E0C6E2D1E00F2EF9E2EF2EF1E0FF2E8C
:10075000F02D65E371E02D913D912017310750F4A4
:10076000F701819191918217930708F44F5FE61783
:10077000F707B9F7AC17BD0771F7409304024D3086
:1007800020F083E080939B0102C010929B01440FF4
:10079000440F440F80919B01482B40939B0182E0C2
:1007A00080930C0159C00E945B040E94C90400910F
:1007B00035011091360140910402AEE1B1E0C6E28C
:1007C000D1E00F2EF9E2EF2EF1E0FF2EF02D65E3E0
:1007D00071E02D913D912017310750F4F70181917F
:1007E00091918217930708F44F5FE617F707B9F75F
:1007F000AC17BD0771F7409304024D3020F083E041
:1008000080939B0102C010929B01440F440F440F40
:1008100080919B01482B40939B0182E080930C01C7
:1008200080E492E4AFE0B0E080930502909306028A
:10083000A0930702B09308020FC080910502909127
:100840000602A0910702B0910802892B8A2B8B2BFC
:1008500019F481E080930C01DF91CF911F910F91EA
:10086000FF90EF9008950E94F4000E9458010895AF
:100870008F70806C80937C0086E880937A0024E0FF
:1008800030E040E050E0EAE7F0E0A8E7B0E0908137
:1008900090649083908194FFFDCF8D919C911197EE
:1008A000480F591F2150310991F7CA019695879534
:1008B0009695879508950E949001909328018093C2
:1008C00027010895FF920F931F93CF93DF9380E04A
:1008D0000E943804C2E1D1E00F2EFBE1FF2EF02D83
:1008E0009C01F29EC001F39E900D112403EC12E0D6
:1008F000B8010E941A067983688381E00E94380457
:100900009C01F29EC001F39E900D1124B8010E943B
:100910001A067B836A8382E00E9438049C01F29E5F
:10092000C001F39E900D1124B8010E941A067D8328
:100930006C8383E00E9438049C01F29EC001F39E08
:10094000900D1124B8010E941A067F836E8384E003
:100950000E9438049C01F29EC001F39E900D112468
:10096000B8010E941A067987688785E00E943804DA
:100970009C01F29EC001F39E900D1124B8010E94CB
:100980001A067B876A87DF91CF911F910F91FF90A5
:100990000895CF92DF92FF920F931F93CF93DF932F
:1009A00084E00E9438048C0180E00E943804CEE18B
:1009B000D1E0081B190B0F2EFBE1FF2EF02DF09E4E
:1009C000C001F19E900D112403EC12E0B8010E94C9
:1009D0001A067983688385E00E9438046C0181E0FF
:1009E0000E943804C81AD90AFC9CC001FD9C900DD5
:1009F0001124B8010E941A067B836A8384E00E9456
:100A000038046C0182E00E943804C81AD90AFC9CA0
:100A1000C001FD9C900D1124B8010E941A067D832F
:100A20006C8385E00E9438046C0183E00E943804E6
:100A3000C81AD90AFC9CC001FD9C900D1124B80174
:100A40000E941A067F836E83DF91CF911F910F91D1
:100A5000FF90DF90CF900895CF93C82F86E00E943B
:100A60003804CC2351F045E1489F9001499F300D57
:100A700011243093010220930002CF910895209118
:100A80000902422F50E080910B0290E0841B950BED
:100A90009E5F917899231CF401979E6F01960397AE
:100AA0000CF4C7C0FA01EF5EFD4F80819091040104
:100AB000382F307F9313BAC08F7080930E02E1E01D
:100AC000E20FE0930902813021F0843009F457C02D
:100AD0000895F0E0EF5EFD4F4081342F307E80912D
:100AE0000001381330C04F7180E1489FA0011124EC
:100AF00050930D0240930C022E5F20930902E22FC7
:100B0000F0E0EF5EFD4F808182958F709A01280F93
:100B1000311D3093020120930101E1E1F4E09F5F78
:100B20009083C9010196929582958F7089279F7055
:100B3000892781832F5F8091030190E1299F800D98
:100B40001124828311C0A1E1B4E09F5F9C931196B0
:100B50004C9311972E5F20930902E22FF0E0EF5E95
:100B6000FD4F808112968C9363E081E194E00E94B6
:100B7000D500809109018F5F809309010895F0E00D
:100B8000EF5EFD4F808140910001382F307E43138E
:100B900047C02E5F209309028F71E22FF0E0EF5ED5
:100BA000FD4F208122952F7030E050E1859F200D70
:100BB000311D112430930D0220930C02E1E1F4E089
:100BC0009F5F9083C901929582958F7089279F704E
:100BD000892750E2459F800D11248183822F8295C1
:100BE000807F82838091010190910201281739074B
:100BF00099F48FEA83838EEF8483E6E1F4E023E3C4
:100C000034E081E08193E217F307E1F7E1E1F4E0FA
:100C10008FEA82A38EEF83A3809103018093350432
:100C200065E281E194E00E94D50008952F5F209352
:100C300009020895AA1BBB1B51E107C0AA1FBB1FD5
:100C4000A617B70710F0A61BB70B881F991F5A9558
:100C5000A9F780959095BC01CD010895F894FFCF38
:060C600001C10009A00023
:00000001FF
