:100000000C945A000C9477000C9477000C947700B1
:100010000C9477000C9477000C9477000C94790082
:100020000C9477000C9477000C9477000C94770074
:100030000C9477000C9477000C9477000C94770064
:100040000C9477000C9477000C9420030C947700A8
:100050000C9477000C9477000C9477000C94770044
:100060000C9477000C9477000C9477000C94770034
:100070000C9446030C9477000C9477000C94770052
:100080000C9477000C9477000C9477000C94770014
:100090000C9477000C9477000C9477000C94770004
:1000A0000C9477000C9477000C9477000C947700F4
:1000B0000C94770011241FBECFEFD8E0DEBFCDBF78
:1000C00011E0A0E0B1E0ECECFDE002C005900D9283
:1000D000A630B107D9F722E0A6E0B1E001C01D9239
:1000E000A830B207E1F70E946C030C94E4060C946C
:1000F00000001F920F920FB60F9211248F938091E0
:1001000006018F5F809306018F910F900FBE0F90B5
:100110001F90189582E08093B00095E09093B10015
:1001200093E69093B300809370000895CF92DF928E
:10013000EF92FF92E0E7F0E080818D7F80838091F5
:100140000601882309F441C020E233E0829F600168
:10015000839FD00C1124E0910001F09101013097B0
:1001600091F120E00D2C000CEE08FF0880819181B8
:10017000A281B381AC01BD014150510961097109EE
:100180004E3F5F4F6F4F7F4F90F4C816D906EA0677
:10019000FB0628F0108211821282138208C08C198B
:1001A0009D09AE09BF0980839183A283B3832F5F2A
:1001B000E22FF0E0EE0FFF1FE050FF4F0190F081C3
:1001C000E02D309799F610920601E0E7F0E080818B
:1001D00082608083FF90EF90DF90CF90089510921F
:1001E000C50087E68093C40088E98093C10086E05B
:1001F0008093C2000895549A5C98E1ECF0E080810D
:10020000877F8083808180688083519808951092D1
:10021000CD0087E68093CC0088E98093C90086E012
:100220008093CA000895259A2D9AE9ECF0E0808128
:100230008860808380818F7780830895E8ECF0E088
:10024000908195FFFDCF8093CE0008951092D90044
:1002500088E48093D800089584E98093DC00ECED75
:10026000F0E0808184FDFDCF089594EA9093DC0056
:10027000ECEDF0E090819923ECF79091D900987F14
:10028000983029F09091D900987F9031B9F48093FB
:10029000DB0084E88093DC00ECEDF0E080818823D3
:1002A000ECF78091D900887F883151F09091D90086
:1002B000987F81E0903429F480E0089581E00895EA
:1002C00080E008958093DB0084E88093DC00ECED0F
:1002D000F0E080818823ECF79091D900987F81E04D
:1002E000983209F480E0089584EC8093DC00ECED12
:1002F000F0E080818823ECF78091DB00089584E8AA
:100300008093DC00ECEDF0E080818823ECF78091B5
:10031000DB0008958EE90E9435018FE99FE0019787
:10032000F1F700C000008CEA0E9462018FE99FE0B3
:100330000197F1F700C0000080E00E9462018FE9A0
:100340009FE00197F1F700C000000E942C018FE9A7
:100350009FE00197F1F700C000008EE90E9435018F
:100360008FE99FE00197F1F700C000008EEE0E9438
:1003700062018FE99FE00197F1F700C000000E9441
:100380002C010895CF93DF938EE90E9435018AEA0C
:100390000E9462018FE90E9435010E947401C82FFA
:1003A0000E947F01D82F0E942C012C2F30E0CC23FB
:1003B000D4F4322F22272D2B40E050E061E070E092
:1003C000421B530B61097109689416F8759567957E
:1003D000579547951694D1F72BEF2403C001259F1D
:1003E000900D112410C0322F2227C9018D2B880FA8
:1003F000892F881F990B91959C01220F331F220F83
:10040000331F820F931FDF91CF9108951092070140
:1004100081E0809325010E9406030E940C03089549
:10042000809107018130F1F138F0823009F4ACC0DD
:10043000833009F46DC0089580910202811107C0D4
:1004400081E0809307010E941103109225018091A1
:100450000202823069F483E08093070180910102F7
:100460000E941603809101028093100110922501D1
:1004700080910202833009F0C8C082E080930701B6
:100480000E940C0381E08093250180E492E4AFE0B8
:10049000B0E080930C0190930D01A0930E01B093F6
:1004A0000F01089580910202813039F41092070102
:1004B0000E940C0381E0809325018091020282302A
:1004C00069F483E080930701809101020E94160382
:1004D0008091010280931001109225018091020207
:1004E000833009F092C082E0809307010E940C03E0
:1004F00081E08093250180E492E4AFE0B0E0809356
:100500000C0190930D01A0930E01B0930F0108957B
:100510008091010290911001981731F00E9416030A
:10052000809101028093100180910202811107C025
:1005300081E0809307010E941103109225018091B0
:100540000202813039F4109207010E940C0381E00D
:100550008093250180910202833009F056C082E029
:10056000809307010E940C0381E08093250180E4C1
:1005700092E4AFE0B0E080930C0190930D01A09362
:100580000E01B0930F01089580910C0190910D011F
:10059000A0910E01B0910F01892B8A2B8B2B71F446
:1005A0000E941B0380E492E4AFE0B0E080930C0172
:1005B00090930D01A0930E01B0930F018091020260
:1005C000811107C081E0809307010E9411031092FE
:1005D000250180910202813039F4109207010E94B6
:1005E0000C0381E08093250180910202823069F43E
:1005F00083E080930701809101020E94160380919D
:10060000010280931001109225010895569A83ECFF
:1006100084BD82E085BD089584B58F7384BD5E98E6
:10062000089584B58F7384BD5E9A089594B5906CD7
:1006300094BD87BD08959BB180E489278BB9089547
:100640001F920F920FB60F9211248F939F93EF93E7
:10065000FF93809109019091C600E82FF0E0E556E4
:10066000FE4F908391E090930A01833618F0109228
:10067000090103C08F5F80930901FF91EF919F9162
:100680008F910F900FBE0F901F9018951F920F9291
:100690000FB60F9211248F939F93EF93FF93809146
:1006A00008019091CE00E82FF0E0EA5CFE4F9083C5
:1006B00091E090930A01833618F01092080103C06C
:1006C0008F5F80930801FF91EF919F918F910F9021
:1006D0000FBE0F901F901895E8E2F1E088E597E0D3
:1006E0009183808388E992E19383828388ED9DE101
:1006F0009583848388E199E29783868388E594E3F0
:100700009187808780E89EE39387828780EF95E5D5
:10071000958784870E948A000E94B3030E94060284
:1007200078940E94EF000E9407010E94FB000E9443
:10073000130181E08093020282E380930102C6E20A
:10074000D1E00E9496000E94C5030E941002809191
:1007500027010E941E0188810E941E0180919A013A
:100760000E941E01EECF82E080930B0180E492E4B0
:10077000AFE0B0E08093040290930502A0930602DC
:10078000B09307020E9496040895EF92FF920F9390
:100790001F93CF93DF9380912501811110C080E4D6
:1007A00092E4AFE0B0E08093040290930502A0933E
:1007B0000602B093070282E080930B01A1C08091F2
:1007C0000B01813009F453C020F0823009F0A7C03A
:1007D00097C00E94BE0480E00E94A7050E94C50445
:1007E0000E9438050091340110913501ADE1B1E06E
:1007F000C5E2D1E040E00F2EF8E2EF2EF1E0FF2E4F
:10080000F02D64E371E02D913D912017310750F4F4
:10081000F701819191918217930708F44F5FE617D2
:10082000F707B9F7AC17BD0771F7409303024D30D6
:1008300020F087E080939A0102C010929A01440F41
:10084000440F440F80919A01482B40939A0182E013
:1008500080930B0180EC96ECADE2B0E08093040253
:1008600090930502A0930602B093070258C00E941D
:10087000BE040E9438050091340110913501ADE1AC
:10088000B1E0C5E2D1E040E00F2EF8E2EF2EF1E05A
:10089000FF2EF02D64E371E02D913D91201731077B
:1008A00050F4F701819191912817390708F04F5FB3
:1008B000E617F707B9F7AC17BD0771F740930302C6
:1008C0004D3020F087E080939A0102C010929A0187
:1008D000440F440F440F80919A01482B40939A0192
:1008E00082E080930B0180E492E4AFE0B0E080937B
:1008F000040290930502A0930602B09307020FC072
:100900008091040290910502A0910602B091070225
:10091000892B8A2B8B2B19F481E080930B01DF91BB
:10092000CF911F910F91FF90EF9008950E942601A3
:100930000E948A0108958F70806C80937C0086E805
:1009400080937A0024E030E040E050E0EAE7F0E015
:10095000A8E7B0E0908190649083908194FFFDCFF0
:100960008D919C911197480F591F2150310991F792
:10097000CA01969587959695879508950E94C2011C
:1009800090932701809326010895CF93DF9380E011
:100990000E949B04C1E1D1E0BC0180E090E00E9494
:1009A000E90521E93DEE4DEC51E40E944F060E941D
:1009B000BA057983688381E00E949B04BC0180E0D2
:1009C00090E00E94E90521E93DEE4DEC51E40E94E2
:1009D0004F060E94BA057B836A8382E00E949B04D3
:1009E000BC0180E090E00E94E90521E93DEE4DEC7C
:1009F00051E40E944F060E94BA057D836C8383E018
:100A00000E949B04BC0180E090E00E94E90521E97E
:100A10003DEE4DEC51E40E944F060E94BA057F83E3
:100A20006E8384E00E949B04BC0180E090E00E9401
:100A3000E90521E93DEE4DEC51E40E944F060E948C
:100A4000BA057987688785E00E949B04BC0180E035
:100A500090E00E94E90521E93DEE4DEC51E40E9451
:100A60004F060E94BA057B876A87DF91CF91089570
:100A70000F931F93CF93DF9384E00E949B04EC01BC
:100A800080E00E949B040DE111E0BE01681B790B20
:100A900080E090E00E94E90521E93DEE4DEC51E453
:100AA0000E944F060E94BA05F8017183608385E0B9
:100AB0000E949B04EC0181E00E949B04BE01681B24
:100AC000790B80E090E00E94E90521E93DEE4DECD4
:100AD00051E40E944F060E94BA05F80173836283B5
:100AE00084E00E949B04EC0182E00E949B04BE0112
:100AF000681B790B80E090E00E94E90521E93DEE5A
:100B00004DEC51E40E944F060E94BA05F80175832E
:100B1000648385E00E949B04EC0183E00E949B04B7
:100B2000BE01681B790B80E090E00E94E90521E995
:100B30003DEE4DEC51E40E944F060E94BA05F801CB
:100B400077836683DF91CF911F910F910895CF93A3
:100B5000C82F86E00E949B04CC2351F045E1489FBA
:100B60009001499F300D1124309300022093FF0122
:100B7000CF9108950E942E0688F09F5798F0B92FC4
:100B80009927B751B0F0E1F0660F771F881F991FC2
:100B90001AF0BA95C9F714C0B13091F00E94480616
:100BA000B1E008950C944806672F782F8827B85F26
:100BB00039F0B93FCCF3869577956795B395D9F71A
:100BC0003EF490958095709561957F4F8F4F9F4F24
:100BD0000895E89409C097FB3EF490958095709530
:100BE00061957F4F8F4F9F4F9923A9F0F92F96E979
:100BF000BB279395F695879577956795B795F111EE
:100C0000F8CFFAF4BB0F11F460FF1BC06F5F7F4F8A
:100C10008F4F9F4F16C0882311F096E911C077239C
:100C200021F09EE8872F762F05C0662371F096E8A5
:100C3000862F70E060E02AF09A95660F771F881F74
:100C4000DAF7880F9695879597F9089557FD90588C
:100C5000440F551F59F05F3F71F04795880F97FB80
:100C6000991F61F09F3F79F087950895121613063A
:100C70001406551FF2CF4695F1DF08C01616170669
:100C80001806991FF1CF869571056105089408959E
:100C9000E894BB2766277727CB0197F908950E9430
:100CA00062060C94D3060E94C50638F00E94CC065A
:100CB00020F0952311F00C94BC060C94C20611246C
:100CC0000C9449060E94260670F3959FC1F3950F78
:100CD00050E0551F629FF001729FBB27F00DB11DC0
:100CE000639FAA27F00DB11DAA1F649F6627B00D50
:100CF000A11D661F829F2227B00DA11D621F739F39
:100D0000B00DA11D621F839FA00D611D221F749F46
:100D10003327A00D611D231F849F600D211D822F8D
:100D2000762F6A2F11249F5750409AF0F1F08823B4
:100D30004AF0EE0FFF1FBB1F661F771F881F9150E1
:100D40005040A9F79E3F510580F00C94BC060C94CE
:100D500049065F3FE4F3983ED4F38695779567950F
:100D6000B795F795E7959F5FC1F7FE2B880F911D0B
:100D70009695879597F9089597F99F6780E870E0B1
:100D800060E008959FEF80EC089500240A94161601
:100D9000170618060906089500240A941216130669
:100DA000140605060895092E0394000C11F48823F7
:100DB00052F0BB0F40F4BF2B11F460FF04C06F5F13
:0C0DC0007F4F8F4F9F4F0895F894FFCF96
:060DCC0004020C0100000E
:00000001FF
