:100000000C945A000C9477000C9477000C947700B1
:100010000C9477000C9477000C9477000C94790082
:100020000C9477000C9477000C9477000C94770074
:100030000C9477000C9477000C9477000C94770064
:100040000C9477000C9477000C9409010C947700C1
:100050000C9477000C9477000C9477000C94770044
:100060000C9477000C9477000C9477000C94770034
:100070000C942F010C9477000C9477000C9477006B
:100080000C9477000C9477000C9477000C94770014
:100090000C9477000C9477000C9477000C94770004
:1000A0000C9477000C9477000C9477000C947700F4
:1000B0000C94770011241FBECFEFD8E0DEBFCDBF78
:1000C00011E0A0E0B1E0E8EAF8E002C005900D928E
:1000D000A630B107D9F723E0A6E0B1E001C01D9238
:1000E000AA32B207E1F70E9455010C9452040C9415
:1000F00000001F920F920FB60F9211248F938091E0
:1001000006018F5F809306018F910F900FBE0F90B5
:100110001F9018951092C50087E68093C40088E967
:100120008093C10086E08093C2000895549A5C9841
:10013000E1ECF0E08081877F80838081806880832C
:10014000519808951092CD0087E68093CC0088E9FD
:100150008093C90086E08093CA000895259A2D9A5D
:10016000E9ECF0E080818860808380818F778083F4
:10017000089582E08093B00095E09093B10093E6FB
:100180009093B300809370000E948A000E94A200A6
:100190000E9496000E94AE000895E8ECF0E0908185
:1001A00095FFFDCF8093CE0008950F931F93CF93BB
:1001B000DF93EC01662399F06150062F10E00F5F8A
:1001C0001F4F080F191F89910E94CD008FE39FE1F7
:1001D0000197F1F700C00000C017D107A1F7DF9128
:1001E000CF911F910F9108951092070181E08093A4
:1001F00022010E94FE000E9404010895569A83EC99
:1002000084BD82E085BD089584B58F7384BD5E98FA
:1002100008951F920F920FB60F9211248F939F9300
:10022000EF93FF93809109019091C600E82FF0E0D1
:10023000E653FE4F908391E090930B01853918F0BF
:100240001092090103C08F5F80930901FF91EF9124
:100250009F918F910F900FBE0F901F9018951F9236
:100260000F920FB60F9211248F939F93EF93FF93EA
:1002700080910A019091CE00E82FF0E0ED5CFE4FF6
:10028000908391E090930B01853918F010920A0148
:1002900003C08F5F80930A01FF91EF919F918F912F
:1002A0000F900FBE0F901F9018950E94B9000E94EA
:1002B00062018FEF0E94CD000E94F40078940E94AA
:1002C0007701FDCF82E080930C01579A5F9880E41C
:1002D00092E4AFE0B0E08093FB029093FC02A09325
:1002E000FD02B093FE020E94760108950895FF92E8
:1002F0000F931F93CF93DF9380910D01813009F409
:1003000019C1823009F4BCC1833009F441C2409163
:100310000801242F30E08091090190E0821B930BAB
:100320008A569F4F66E970E00E943E0403970CF4E2
:100330008BC2F901E653FE4F808190910501282F71
:10034000207F92137EC28F7080930203453918F08C
:100350001092080103C04F5F40930801843009F4F4
:1003600074C0873009F444C1813009F06DC24091F6
:100370000801E42FF0E0E653FE4F8081582F52959C
:10038000569557702091000152133AC0282F2F71B3
:1003900060E1269F90011124309301032093000314
:1003A000453918F01092080103C04F5F40930801CF
:1003B000E0910801F0E0E653FE4F808182958F7056
:1003C000280F311D3093020120930101E5E0F3E095
:1003D0009F5F9083C9010196929582958F708927BE
:1003E0009F70892740E2549F800D112481832F5FE5
:1003F0008091040150E1259F800D1124828315C056
:10040000E5E0F3E09F5F90838183453918F0109217
:10041000080103C04F5F40930801E0910801F0E03C
:10042000E653FE4F80818093070363E085E093E00D
:100430000E94D50080910801853918F010920801BA
:1004400003C28F5F80930801FFC183E080930301A3
:1004500040910801E42FF0E0E653FE4F8081582FD1
:100460005295569557702091000152134EC0282F77
:100470002F7160E1269F90011124453918F01092E8
:10048000080103C04F5F40930801E0910801F0E0CC
:10049000E653FE4F808182958F70280F311D309377
:1004A000010320930003E5E0F3E09F5F9083C9011F
:1004B000929582958F7089279F70892740E2549F7B
:1004C000800D11248183822F8295807F8283809189
:1004D0000101909102012817390761F58FEA8383A2
:1004E0008EEF8483EAE0F3E027E233E081E081935A
:1004F000E217F307E1F7E5E0F3E08FEA82A38EEF7E
:1005000083A38091040184A363C0E5E0F3E09C5FD2
:1005100090838183453918F01092080103C04F5F22
:1005200040930801E0910801F0E0E653FE4F80811E
:100530008093070381E080930D01C0910901D0E011
:1005400030910801CE01831B91098A569F4F66E9BD
:1005500070E00E943E04029784F12091030124324E
:1005600088F5F12C06E910E0353910F43F5F01C041
:100570003F2D832F90E0E22FF0E0EB5FFC4FDC019A
:10058000A653BE4F4C9140832F5FAE01481B590BC1
:10059000CA018A569F4FB8010E943E0402972CF46C
:1005A000309308012093030108C02432E9F6309308
:1005B000080184E28093030105C080910301843225
:1005C00008F442C110920D01809104018093290327
:1005D00065E285E093E00E94D500809108018539AD
:1005E00018F01092080130C18F5F809308012CC170
:1005F00040910801E42FF0E0E653FE4F8081582F30
:10060000529556955770209100015213ACC0282F77
:100610002F7160E1269F90011124453918F0109246
:10062000080103C04F5F40930801E0910801F0E02A
:10063000E653FE4F4081842F82958F70280F311D25
:100640003093010320930003E5E0F3E0995F90838A
:10065000C901929582958F7089279F70892760E2E2
:10066000569F800D1124818342832115310541F06D
:1006700080910101909102012817390709F088C083
:1006800082E080930D01C0910901D0E03091080112
:10069000CE01831B91098A569F4F66E970E00E9444
:1006A0003E04029784F120910301263088F5F12C55
:1006B00006E910E0353910F43F5F01C03F2D832F6C
:1006C00090E0E22FF0E0EB5FFC4FDC01A653BE4F61
:1006D0004C9140832F5FAE01481B590BCA018A56CB
:1006E0009F4FB8010E943E0402972CF430930801FA
:1006F0002093030108C02630E9F63093080186E014
:100700008093030105C080910301863008F49CC0EA
:1007100010920D01E5E0F3E083819281282F22956C
:100720002F7050E1959F200D11242093FF0290E03F
:10073000982F88279295907F348160E1369F800DB5
:10074000911D1124358132953F70830F911D909337
:10075000040380930303213009F063C09093F702F0
:100760008093F6025EC0E5E0F3E0995F90838183B9
:10077000453918F01092080103C04F5F40930801FB
:10078000E0910801F0E0E653FE4F8081809307037B
:1007900082E080930D01C0910901D0E03091080101
:1007A000CE01831B91098A569F4F66E970E00E9433
:1007B0003E04029784F120910301263080F5F12C4C
:1007C00006E910E0353910F43F5F01C03F2D832F5B
:1007D00090E0E22FF0E0EB5FFC4FDC01A653BE4F50
:1007E0004C9140832F5FAE01481B590BCA018A56BA
:1007F0009F4FB8010E943E0402972CF430930801E9
:100800002093030108C02630E9F63093080186E002
:100810008093030104C0809103018630A8F01092F8
:100820000D0166E085E093E00E94D500809108010B
:10083000853918F01092080107C08F5F8093080176
:1008400003C04F5F40930801DF91CF911F910F913B
:10085000FF900895AA1BBB1B51E107C0AA1FBB1F35
:10086000A617B70710F0A61BB70B881F991F5A953C
:10087000A9F780959095BC01CD01089597FB072EAF
:1008800016F4009407D077FD09D00E942A0407FCD3
:1008900005D03EF4909581959F4F08957095619590
:0808A0007F4F0895F894FFCF8B
:0608A80001AA000309A0F3
:00000001FF
