S0140000636F6E74726F6C426F7856312E737265635F
S11300000C945A000C9477000C9477000C947700AD
S11300100C9477000C9477000C9477000C9479007E
S11300200C9477000C9477000C9477000C94770070
S11300300C9477000C9477000C9477000C94770060
S11300400C9477000C9477000C945B030C94770069
S11300500C9477000C9477000C9477000C94770040
S11300600C9477000C9477000C9477000C94770030
S11300700C9481030C9477000C9477000C94770013
S11300800C9477000C9477000C9477000C94770010
S11300900C9477000C9477000C9477000C94770000
S11300A00C9477000C9477000C9477000C947700F0
S11300B00C94770011241FBECFEFD8E0DEBFCDBF74
S11300C011E0A0E0B1E0E8EEFFE002C005900D927F
S11300D0AC30B107D9F724E0ACE0B1E001C01D9227
S11300E0AD33B207E1F70E94A7030C94F2070C9416
S11300F000001F920F920FB60F9211248F938091DC
S11301000C018F5F80930C018F910F900FBE0F90A5
S11301101F901895CF92DF92EF92FF92E0E7F0E004
S113012080818D7F808380910C01882309F441C0F4
S113013020E233E0829F6001839FD00C1124E09180
S11301400501F0910601309791F120E00D2C000C8F
S1130150EE08FF0880819181A281B381AC01BD01C9
S113016041505109610971094E3F5F4F6F4F7F4FF5
S113017090F4C816D906EA06FB0628F0108211820C
S11301801282138208C08C199D09AE09BF098083AD
S11301909183A283B3832F5FE22FF0E0EE0FFF1F62
S11301A0EB5FFE4F0190F081E02D309799F61092AD
S11301B00C01E0E7F0E0808182608083FF90EF90A3
S11301C0DF90CF9008951092C50087E68093C40015
S11301D088E98093C10086E08093C2000895549A10
S11301E05C98E1ECF0E08081877F80838081806887
S11301F08083519808951092CD0087E68093CC00B7
S113020088E98093C90086E08093CA000895259AFE
S11302102D9AE9ECF0E080818860808380818F777B
S11302208083089582E08093B00095E09093B100BC
S113023093E69093B300809370000E94E3000E94C1
S1130240FB000E94EF000E9407010895E8ECF0E033
S1130250908195FFFDCF8093CE0008950F931F9357
S1130260CF93DF93EC01662399F06150062F10E0E1
S11302700F5F1F4F080F191F89910E9426018FE3FA
S11302809FE10197F1F700C00000C017D107A1F763
S1130290DF91CF911F910F9108951092D90088E4B6
S11302A08093D800089584E98093DC00ECEDF0E0BD
S11302B0808184FDFDCF089594EA9093DC00ECEDF9
S11302C0F0E090819923ECF79091D900987F9830D1
S11302D029F09091D900987F9031B9F48093DB0094
S11302E084E88093DC00ECEDF0E080818823ECF777
S11302F08091D900887F883151F09091D900987FFE
S113030081E0903429F480E0089581E0089580E04C
S113031008958093DB0084E88093DC00ECEDF0E04A
S113032080818823ECF79091D900987F81E09832FE
S113033009F480E0089584EC8093DC00ECEDF0E0B7
S113034080818823ECF78091DB00089584E8809312
S1130350DC00ECEDF0E080818823ECF78091DB0099
S113036008958EE90E945C018FE99FE00197F1F7FF
S113037000C000008CEA0E9489018FE99FE0019788
S1130380F1F700C0000080E00E9489018FE99FE03E
S11303900197F1F700C000000E9453018FE99FE02C
S11303A00197F1F700C000008EE90E945C018FE91B
S11303B09FE00197F1F700C000008EEE0E948901D2
S11303C08FE99FE00197F1F700C000000E945301FC
S11303D00895CF93DF938EE90E945C018AEA0E941C
S11303E089018FE90E945C010E949B01C82F0E9431
S11303F0A601D82F0E9453012C2F30E0CC23D4F433
S1130400322F22272D2B40E050E061E070E0421BA8
S1130410530B61097109689416F87595679557959A
S113042047951694D1F72BEF2403C001259F900D17
S1130430112410C0322F2227C9018D2B880F892F38
S1130440881F990B91959C01220F331F220F331F94
S1130450820F931FDF91CF91089510920D0181E0D7
S113046080932C010E942D030E94330308958091F0
S11304700D018130F1F138F0823009F4ACC08330E1
S113048009F46DC0089580910902811107C081E0CB
S113049080930D010E94380310922C01809109026F
S11304A0823069F483E080930D01809108020E94F8
S11304B03D03809108028093170110922C018091D2
S11304C00902833009F0C8C082E080930D010E94C4
S11304D0330381E080932C0180E492E4AFE0B0E048
S11304E08093130190931401A0931501B093160106
S11304F0089580910902813039F410920D010E940F
S1130500330381E080932C0180910902823069F4E5
S113051083E080930D01809108020E943D03809145
S113052008028093170110922C01809109028330F4
S113053009F092C082E080930D010E94330381E0B0
S113054080932C0180E492E4AFE0B0E08093130147
S113055090931401A0931501B0931601089580910E
S1130560080290911701981731F00E943D03809181
S113057008028093170180910902811107C081E06C
S113058080930D010E94380310922C01809109027E
S1130590813039F410920D010E94330381E080937D
S11305A02C0180910902833009F056C082E08093C7
S11305B00D010E94330381E080932C0180E492E4D6
S11305C0AFE0B0E08093130190931401A093150160
S11305D0B093160108958091130190911401A09194
S11305E01501B0911601892B8A2B8B2B71F40E9473
S11305F0420380E492E4AFE0B0E08093130190936F
S11306001401A0931501B093160180910902811180
S113061007C081E080930D010E94380310922C01E1
S113062080910902813039F410920D010E94330344
S113063081E080932C0180910902823069F483E087
S113064080930D01809108020E943D03809108026D
S11306508093170110922C010895569A83EC84BD5F
S113066082E085BD089584B58F7384BD5E98089536
S113067084B58F7384BD5E9A089594B5906C94BDCF
S113068087BD08959BB180E489278BB90895809133
S11306901101882319F0813031F00AC00E94370219
S11306A00E94F80308950E94ED0510921101089527
S11306B01092110108951F920F920FB60F921124F8
S11306C08F939F93EF93FF93809110019091C600B5
S11306D0E82FF0E0EE55FE4F908391E090931101E6
S11306E0833618F01092100103C08F5F80931001BD
S11306F0FF91EF919F918F910F900FBE0F901F90DC
S113070018951F920F920FB60F9211248F939F93F7
S1130710EF93FF9380910E019091CE00E82FF0E0CB
S1130720E35CFE4F908391E090931101833618F0BF
S113073010920E0103C08F5F80930E01FF91EF9121
S11307409F918F910F900FBE0F901F901895EFE21D
S1130750F1E088E597E09183808388E992E19383CF
S1130760828388ED9DE19583848388E199E2978370
S1130770868388E594E39187808780E89EE3938766
S1130780828780EF95E5958784870E9412010E94F5
S1130790E6030E942D0278940E94E3000E94FB006D
S11307A00E94EF000E94070181E08093090282E326
S11307B0809308020E9412010E94E6030E942D0207
S11307C078940E948A000E944703FBCF82E08093C2
S11307D0120180E492E4AFE0B0E080930C029093C5
S11307E00D02A0930E02B0930F020E94C904089553
S11307F0EF92FF920F931F93CF93DF9380912C017D
S1130800811110C080E492E4AFE0B0E080930C0268
S113081090930D02A0930E02B0930F0282E0809396
S11308201201A1C080911201813009F453C020F05B
S1130830823009F0A7C097C00E94F10480E00E94B2
S1130840DA050E94F8040E946B0500913B011091A7
S11308503C01A4E2B1E0CCE2D1E040E00F2EFFE2A3
S1130860EF2EF1E0FF2EF02D6BE371E02D913D9121
S11308702017310750F4F701819191918217930762
S113088008F44F5FE617F707B9F7AC17BD0771F720
S113089040930A024D3020F087E08093A10102C00A
S11308A01092A101440F440F440F8091A101482BE1
S11308B04093A10182E08093120180EC96ECADE2BA
S11308C0B0E080930C0290930D02A0930E02B093BB
S11308D00F0258C00E94F1040E946B0500913B0175
S11308E010913C01A4E2B1E0CCE2D1E040E00F2E53
S11308F0FFE2EF2EF1E0FF2EF02D6BE371E02D917E
S11309003D912017310750F4F701819191912817F7
S1130910390708F04F5FE617F707B9F7AC17BD07BB
S113092071F740930A024D3020F087E08093A101D3
S113093002C01092A101440F440F440F8091A10101
S1130940482B4093A10182E08093120180E492E459
S1130950AFE0B0E080930C0290930D02A0930E02DE
S1130960B0930F020FC080910C0290910D02A091E0
S11309700E02B0910F02892B8A2B8B2B19F481E084
S113098080931201DF91CF911F910F91FF90EF900F
S113099008950E944D010E94B10108958F70806CEA
S11309A080937C0086E880937A0024E030E040E085
S11309B050E0EAE7F0E0A8E7B0E09081906490832B
S11309C0908194FFFDCF8D919C911197480F591FF1
S11309D02150310991F7CA01969587959695879587
S11309E008950E94E90190932E0180932D010895AA
S11309F0CF93DF9380E00E94CE04C8E1D1E0BC0134
S1130A0080E090E00E94F70621E93DEE4DEC51E4D0
S1130A100E945D070E94C8067983688381E00E9472
S1130A20CE04BC0180E090E00E94F70621E93DEE8F
S1130A304DEC51E40E945D070E94C8067B836A83E3
S1130A4082E00E94CE04BC0180E090E00E94F706A0
S1130A5021E93DEE4DEC51E40E945D070E94C80679
S1130A607D836C8383E00E94CE04BC0180E090E02F
S1130A700E94F70621E93DEE4DEC51E40E945D072A
S1130A800E94C8067F836E8384E00E94CE04BC016A
S1130A9080E090E00E94F70621E93DEE4DEC51E440
S1130AA00E945D070E94C8067987688785E00E94D6
S1130AB0CE04BC0180E090E00E94F70621E93DEEFF
S1130AC04DEC51E40E945D070E94C8067B876A874B
S1130AD0DF91CF9108950F931F93CF93DF9384E019
S1130AE00E94CE04EC0180E00E94CE0404E211E0F6
S1130AF0BE01681B790B80E090E00E94F70621E9B3
S1130B003DEE4DEC51E40E945D070E94C806F801D9
S1130B107183608385E00E94CE04EC0181E00E9431
S1130B20CE04BE01681B790B80E090E00E94F706BA
S1130B3021E93DEE4DEC51E40E945D070E94C80698
S1130B40F8017383628384E00E94CE04EC0182E0A6
S1130B500E94CE04BE01681B790B80E090E00E94E5
S1130B60F70621E93DEE4DEC51E40E945D070E9439
S1130B70C806F8017583648385E00E94CE04EC0105
S1130B8083E00E94CE04BE01681B790B80E090E0F4
S1130B900E94F70621E93DEE4DEC51E40E945D0709
S1130BA00E94C806F80177836683DF91CF911F9175
S1130BB00F910895CF93C82F86E00E94CE04CC23D2
S1130BC051F045E1489F9001499F300D1124309325
S1130BD0070220930602CF91089520911002422F1C
S1130BE050E08091120290E0841B950B9E5F9178F7
S1130BF099231CF401979E6F019603970CF4C7C0C8
S1130C00FA01E85EFD4F808190910401382F307F16
S1130C109313BAC08F7080931502E1E0E20FE09362
S1130C201002813021F0843009F457C00895F0E0B7
S1130C30E85EFD4F4081342F307E809100013813EF
S1130C4030C04F7180E1489FA001112450931402D9
S1130C50409313022E5F20931002E22FF0E0E85E2F
S1130C60FD4F808182958F709A01280F311D30933A
S1130C70020120930101E8E1F4E09F5F9083C90140
S1130C800196929582958F7089279F708927818319
S1130C902F5F8091030190E1299F800D11248283AD
S1130CA011C0A8E1B4E09F5F9C9311964C931197F7
S1130CB02E5F20931002E22FF0E0E85EFD4F80816A
S1130CC012968C9363E088E194E00E942E01809157
S1130CD00F018F5F80930F010895F0E0E85EFD4FF0
S1130CE0808140910001382F307E431347C02E5F2E
S1130CF0209310028F71E22FF0E0E85EFD4F208117
S1130D0022952F7030E050E1859F200D311D112474
S1130D103093140220931302E8E1F4E09F5F908380
S1130D20C901929582958F7089279F70892750E217
S1130D30459F800D11248183822F8295807F828339
S1130D4080910101909102012817390799F48FEAE3
S1130D5083838EEF8483EDE1F4E02AE334E081E0E1
S1130D608193E217F307E1F7E8E1F4E08FEA82A365
S1130D708EEF83A38091030180933C0465E288E1B4
S1130D8094E00E942E0108952F5F2093100208958D
S1130D900E943C0788F09F5798F0B92F9927B751C4
S1130DA0B0F0E1F0660F771F881F991F1AF0BA950B
S1130DB0C9F714C0B13091F00E945607B1E008950C
S1130DC00C945607672F782F8827B85F39F0B93FFE
S1130DD0CCF3869577956795B395D9F73EF49095BE
S1130DE08095709561957F4F8F4F9F4F0895E8943C
S1130DF009C097FB3EF490958095709561957F4F5F
S1130E008F4F9F4F9923A9F0F92F96E9BB2793950C
S1130E10F695879577956795B795F111F8CFFAF41C
S1130E20BB0F11F460FF1BC06F5F7F4F8F4F9F4F4D
S1130E3016C0882311F096E911C0772321F09EE8AB
S1130E40872F762F05C0662371F096E8862F70E011
S1130E5060E02AF09A95660F771F881FDAF7880FEB
S1130E609695879597F9089557FD9058440F551F07
S1130E7059F05F3F71F04795880F97FB991F61F018
S1130E809F3F79F087950895121613061406551F8F
S1130E90F2CF4695F1DF08C0161617061806991FFB
S1130EA0F1CF86957105610508940895E894BB27F0
S1130EB066277727CB0197F908950E9470070C9451
S1130EC0E1070E94D30738F00E94DA0720F0952347
S1130ED011F00C94CA070C94D00711240C945707F2
S1130EE00E94340770F3959FC1F3950F50E0551F8E
S1130EF0629FF001729FBB27F00DB11D639FAA276B
S1130F00F00DB11DAA1F649F6627B00DA11D661FB9
S1130F10829F2227B00DA11D621F739FB00DA11DDA
S1130F20621F839FA00D611D221F749F3327A00D94
S1130F30611D231F849F600D211D822F762F6A2F30
S1130F4011249F5750409AF0F1F088234AF0EE0F95
S1130F50FF1FBB1F661F771F881F91505040A9F7C2
S1130F609E3F510580F00C94CA070C9457075F3FCD
S1130F70E4F3983ED4F3869577956795B795F795FE
S1130F80E7959F5FC1F7FE2B880F911D9695879576
S1130F9097F9089597F99F6780E870E060E00895F5
S1130FA09FEF80EC089500240A941616170618067D
S1130FB00906089500240A94121613061406050659
S1130FC00895092E0394000C11F4882352F0BB0FEA
S1130FD040F4BF2B11F460FF04C06F5F7F4F8F4F4D
S10B0FE09F4F0895F894FFCF20
S10F0FE801C10009A00C0213010000006C
S9030000FC
