:100000000C945A000C9477000C9477000C947700B1
:100010000C9477000C9477000C9477000C94790082
:100020000C9477000C9477000C9477000C94770074
:100030000C9477000C9477000C9477000C94770064
:100040000C9477000C9477000C94F0000C947700DB
:100050000C9477000C9477000C9477000C94770044
:100060000C9477000C9477000C9477000C94770034
:100070000C9416010C9477000C9477000C94770084
:100080000C9477000C9477000C9477000C94770014
:100090000C9477000C9477000C9477000C94770004
:1000A0000C9477000C9477000C9477000C947700F4
:1000B0000C94770011241FBECFEFD8E0DEBFCDBF78
:1000C00011E0A0E0B1E0EAEEF3E002C005900D928D
:1000D000A630B107D9F722E0A6E0B1E001C01D9239
:1000E000A330B207E1F70E943C010C94F3010C9499
:1000F00000001F920F920FB60F9211248F938091E0
:1001000006018F5F809306018F910F900FBE0F90B5
:100110001F90189582E08093B00095E09093B10015
:1001200093E69093B3008093700008951092C500F9
:1001300087E68093C40088E98093C10086E08093BD
:10014000C2000895549A5C98E1ECF0E08081877FCA
:100150008083808180688083519808951092CD00BB
:1001600087E68093CC0088E98093C90086E080937D
:10017000CA000895259A2D9AE9ECF0E08081886004
:10018000808380818F7780830895E8ECF0E0908110
:1001900095FFFDCF8093CE000895CF93DF93EC01C0
:1001A0008881882361F021960E94C5008FE39FE13A
:1001B0000197F1F700C0000089918111F5CFDF911F
:1001C000CF91089580910A01882349F0813029F464
:1001D0000E94930110920A01089510920A01089555
:1001E0001F920F920FB60F9211248F939F93EF934C
:1001F000FF93809109019091C600E82FF0E0EB5643
:10020000FE4F908391E090930A01833618F010928C
:10021000090103C08F5F80930901FF91EF919F91C6
:100220008F910F900FBE0F901F9018951F920F92F5
:100230000FB60F9211248F939F93EF93FF938091AA
:1002400007019091CE00E82FF0E0E05DFE4F908333
:1002500091E090930A01833618F01092070103C0D1
:100260008F5F80930701FF91EF919F918F910F9086
:100270000FBE0F901F90189578940E948A000E94DC
:1002800096000E94AE000E94A2000E94BA000E9446
:10029000E200FDCFE0E0F2E0809105018F5F808316
:1002A0002091010130910201C90101969295829538
:1002B0008F7089279F7089279091000140E2949F59
:1002C000800D112481832F5F8091040190E1299F8B
:1002D000800D112482830895EDEFF1E080910501F6
:1002E0008B5F808380910101909102019C01369582
:1002F00027952183209103019091040130E2239FEF
:10030000900D1124879588278795890F82830895FA
:1003100080910801833618F01092080108958F5FCC
:10032000809308010895CF9390910901809108016D
:10033000282F30E0692F70E0A9014D5F5F4F6417EF
:1003400075071CF4981708F04CC0F901EB56FE4FE6
:10035000C0819C2F907F2091050129133FC00E94EE
:100360008801E0910801F0E0EB56FE4F4081242F18
:10037000207E30E08091000150E2859FC001112471
:100380002817390771F5CF70C13059F54F7120E149
:10039000429FC001112490930201809301010E94A9
:1003A0008801E0910801F0E0EB56FE4F2081229594
:1003B0002F708091010190910201820F911D909305
:1003C0000201809301010E9488010E944A010E945B
:1003D0006C0180E092E00E94CD0003C08F5F8093AB
:0A03E0000801CF910895F894FFCFB3
:0603EA0001C1000209A0A0
:00000001FF
