:100000000C945A000C9477000C9477000C947700B1
:100010000C9477000C9477000C9477000C94790082
:100020000C9477000C9477000C9477000C94770074
:100030000C9477000C9477000C9477000C94770064
:100040000C9477000C9477000C9409010C947700C1
:100050000C9477000C9477000C9477000C94770044
:100060000C9477000C9477000C9477000C94770034
:100070000C942F010C9477000C9477000C9477006B
:100080000C9477000C9477000C9477000C94770014
:100090000C9477000C9477000C9477000C94770004
:1000A0000C9477000C9477000C9477000C947700F4
:1000B0000C94770011241FBECFEFD8E0DEBFCDBF78
:1000C00011E0A0E0B1E0E6E2FCE002C005900D9294
:1000D000AC30B107D9F723E0ACE0B1E001C01D922C
:1000E000AF32B207E1F70E9455010C9411060C944F
:1000F00000001F920F920FB60F9211248F938091E0
:100100000C018F5F80930C018F910F900FBE0F90A9
:100110001F9018951092C50087E68093C40088E967
:100120008093C10086E08093C2000895549A5C9841
:10013000E1ECF0E08081877F80838081806880832C
:10014000519808951092CD0087E68093CC0088E9FD
:100150008093C90086E08093CA000895259A2D9A5D
:10016000E9ECF0E080818860808380818F778083F4
:10017000089582E08093B00095E09093B10093E6FB
:100180009093B300809370000E948A000E94A200A6
:100190000E9496000E94AE000895E8ECF0E0908185
:1001A00095FFFDCF8093CE008FE39FE10197F1F79C
:1001B00000C0000008950F931F93CF93DF93EC01CD
:1001C000662369F06150062F10E00F5F1F4F080F84
:1001D000191F89910E94CD00C017D107D1F7DF9177
:1001E000CF911F910F91089510920D0181E080939E
:1001F0002A010E94FE000E9404010895569A83EC91
:1002000084BD82E085BD089584B58F7384BD5E98FA
:1002100008951F920F920FB60F9211248F939F9300
:10022000EF93FF9380910F019091C600E82FF0E0CB
:10023000EE52FE4F908391E090931101853918F0B2
:1002400010920F0103C08F5F80930F01FF91EF9118
:100250009F918F910F900FBE0F901F9018951F9236
:100260000F920FB60F9211248F939F93EF93FF93EA
:10027000809110019091CE00E82FF0E0E55CFE4FF8
:10028000908391E090931101853918F0109210013C
:1002900003C08F5F80931001FF91EF919F918F9129
:1002A0000F900FBE0F901F9018950E94B9000E94EA
:1002B00062018FEF0E94CD000E94F40078940E94AA
:1002C0007701FDCF82E080931201579A5F9880E416
:1002D00092E4AFE0B0E08093000390930103A09319
:1002E0000203B09303030E94760108950895CF920C
:1002F000DF92EF92FF920F931F93CF93DF93809142
:100300001301813009F487C1843009F49BC2823023
:1003100009F458C3833009F4EAC340910E01242F35
:1003200030E080910F0190E0821B930B8A569F4F23
:1003300066E970E00E94FD0503970CF441C4F901E1
:10034000EE52FE4F808190910B01282F207F921357
:1003500034C48F7080930703453918F010920E0152
:1003600003C04F5F40930E01823009F479C018F446
:10037000813041F025C4843009F4ECC1873009F4A0
:10038000D3C21EC440910E01E42FF0E0EE52FE4FA6
:100390008081582F52955695577020910001521325
:1003A0003AC0282F2F7160E1269F900111243093CD
:1003B000060320930503453918F010920E0103C07F
:1003C0004F5F40930E01E0910E01F0E0EE52FE4FC0
:1003D000808182958F70280F311D30930201209308
:1003E0000101EAE0F3E09F5F9083C90101969295D5
:1003F00082958F7089279F70892770E2579F800DA3
:10040000112481832F5F80910A0190E1299F800D43
:100410001124828315C0EAE0F3E09F5F908381831B
:10042000453918F010920E0103C04F5F40930E0142
:10043000E0910E01F0E0EE52FE4F808180930C03BC
:1004400063E08AE093E00E94DB0080910E01853931
:1004500018F010920E01B4C38F5F80930E01B0C3E9
:1004600023E030E0309309012093080129E030E0D7
:10047000309306032093050380910E01E82FF0E0EE
:10048000EE52FE4F2081322F3295369537704091D3
:100490000001341389C0220F220F220F853980F00A
:1004A0008091D201482F429546954770240F2093A2
:1004B00004038770109214018093150180E017C027
:1004C0008F5FE82FF0E0EE52FE4F4081542F52959F
:1004D00056955770250F209304034770109214010E
:1004E00040931501853918F010920E0103C08F5FFB
:1004F00080930E01EAE0F3E09E5F90833295330F24
:10050000307E822F869586958695830F8183822FF4
:100510008295880F807E8283809107018D5F84831E
:100520008091010190910201AC01529542954F706A
:1005300045275F704527340F35838295807F2130B2
:1005400019F0223051F011C02091040130910501C1
:1005500030930903209308030CC02091030130E07D
:10056000309309032093080304C0109209031092EA
:1005700008032091080330910903EAE0F3E0932F88
:1005800092959F70890F8683C901929582958F708D
:1005900089279F70892787838091060140E1249FE6
:1005A000800D1124808737C0EAE0F3E09E5F9083DE
:1005B0002183853998F08091D201982F907E909375
:1005C0000C038770109214018093150184E090E071
:1005D000909306038093050380E01AC08F5FE82F95
:1005E000F0E0EE52FE4F9081292F207E20930C03E5
:1005F0009770109214019093150124E030E030932D
:10060000060320930503853918F010920E0103C0EC
:100610008F5F80930E0181E080931301E0910E01C2
:10062000F0E0EE52FE4F208180911401909115016F
:10063000820F911D90931501809314012091050361
:10064000309106032530310558F0EAE0F3E09C01D3
:100650002F5F3F4F9281930F92838F5F838306C0FA
:10066000EAE0F3E02281920F928383836091050395
:100670008AE093E00E94DB008091080190910901DB
:100680000196909309018093080180910E018539AC
:1006900028F010920E01C6E9D0E01DC08F5F809354
:1006A0000E01F9CFF901EE52FE4F80810E94CD007C
:1006B000809108019091090101969093090180931E
:1006C000080180910E01853918F010920E0103C0C7
:1006D0008F5F80930E0120910E0130E080910F0119
:1006E00090E0821B930B8A569F4FBE010E94FD052E
:1006F00018161906A4F48091140190911501AC010B
:10070000440F551F440F551F840F951F04964091A9
:100710000801509109014817590720F214C080912F
:100720001401909115019C01220F331F220F331FDA
:10073000820F931F04962091080130910901281718
:10074000390708F43DC21092130180910A010E94FA
:10075000CD0036C223E030E0309309012093080138
:1007600040910E01E42FF0E0EE52FE4F8081582FB1
:100770005295569557702091000152134EC0282F64
:100780002F7160E1269F90011124453918F01092D5
:100790000E0103C04F5F40930E01E0910E01F0E0A7
:1007A000EE52FE4F808182958F70280F311D30935D
:1007B000060320930503EAE0F3E09F5F9083C901FD
:1007C000929582958F7089279F70892770E2579F35
:1007D000800D11248183822F8295807F8283809176
:1007E0000101909102012817390761F58FEA83838F
:1007F0008EEF8483EFE0F3E02CE233E081E081933D
:10080000E217F307E1F7EAE0F3E08FEA82A38EEF65
:1008100083A380910A0184A377C0EAE0F3E09C5FA0
:1008200090838183453918F010920E0103C04F5F09
:1008300040930E01E0910E01F0E0EE52FE4F8081F8
:1008400080930C0384E080931301C0910F01D0E0EA
:1008500020910E01CE01821B91098A569F4F66E9B5
:1008600070E00E94FD0502970CF441C0E091080180
:10087000F0910901E432F10508F040C0E65FFC4F59
:100880000F2EFEE2CF2EF3E0DF2EF02D40E00F2EF4
:10089000F6E9EF2EF12CF02D253910F42F5F01C071
:1008A000242F822F90E0DC01AE52BE4F3C91319359
:1008B0008F010A501340BE01681B790BCB018A5689
:1008C0009F4FB7010E94FD0502973CF420930E0153
:1008D00010930901009308010AC0EC15FD05E1F62B
:1008E00020930E01109309010093080107C0809125
:1008F000080190910901849708F462C110921301D4
:1009000080910A0180932E0365E28AE093E00E94C1
:10091000DB0080910E01853918F010920E0150C154
:100920008F5F80930E014CC123E030E030930901CA
:100930002093080140910E01E42FF0E0EE52FE4FAB
:100940008081582F5295569557702091000152136F
:10095000B9C0282F2F7170E1279F900111244539CC
:1009600018F010920E0103C04F5F40930E01E0910A
:100970000E01F0E0EE52FE4F4081842F82958F7081
:10098000280F311D3093060320930503EAE0F3E0BE
:10099000995F9083C901929582958F7089279F7086
:1009A000892760E2569F800D11248183428321159F
:1009B000310541F08091010190910201281739071A
:1009C00009F095C082E08093130100910F0110E0BF
:1009D00020910E01C801821B91098A569F4F66E93A
:1009E00070E00E94FD050297DCF1E0910801F091B2
:1009F0000901E630F105D8F5EF01C65FDC4F40E0B4
:100A00000F2EF6E9EF2EF12CF02D253910F42F5F83
:100A100001C0242F822F90E0DC01AE52BE4F3C91EA
:100A200039933196B801681B790BCB018A569F4FD9
:100A3000B7010E94FD0502973CF420930E01F0934C
:100A40000901E09308010CC0E630F105F1F62093AE
:100A50000E0186E090E0909309018093080107C0A1
:100A60008091080190910901069708F4A9C010929D
:100A70001301EAE0F3E083819281282F22952F7001
:100A800070E1979F200D11242093040390E0982F8C
:100A900088279295907F348140E1349F800D911D8D
:100AA0001124358132953F70830F911D9093090376
:100AB00080930803213009F070C090930501809362
:100AC00004016BC0EAE0F3E0995F908381834539CC
:100AD00018F010920E0103C04F5F40930E01E09199
:100AE0000E01F0E0EE52FE4F808180930C0382E015
:100AF0008093130100910F0110E020910E01C801B5
:100B0000821B91098A569F4F66E970E00E94FD059D
:100B10000297DCF1E0910801F0910901E630F1055E
:100B2000D0F5EF01C65FDC4F40E00F2EF6E9EF2E67
:100B3000F12CF02D253910F42F5F01C0242F822FC6
:100B400090E0DC01AE52BE4F3C9139933196B80132
:100B5000681B790BCB018A569F4FB7010E94FD0598
:100B600002973CF420930E01F0930901E0930801F1
:100B70000CC0E630F105F1F620930E0186E090E01E
:100B8000909309018093080106C08091080190911B
:100B900009010697A8F01092130166E08AE093E03D
:100BA0000E94DB0080910E01853918F010920E0131
:100BB00007C08F5F80930E0103C04F5F40930E010B
:100BC000DF91CF911F910F91FF90EF90DF90CF9029
:100BD0000895AA1BBB1B51E107C0AA1FBB1FA61784
:100BE000B70710F0A61BB70B881F991F5A95A9F7D6
:100BF00080959095BC01CD01089597FB072E16F4C2
:100C0000009407D077FD09D00E94E90507FC05D0C4
:100C10003EF4909581959F4F0895709561957F4F13
:060C20000895F894FFCFD7
:0C0C260001AA00AADADA0650030009A0B7
:00000001FF
