:100000000C945A000C9477000C9477000C947700B1
:100010000C9477000C9477000C9477000C94790082
:100020000C9477000C9477000C9477000C94770074
:100030000C9477000C9477000C9477000C94770064
:100040000C9477000C9477000C9469020C94770060
:100050000C9477000C9477000C9477000C94770044
:100060000C9477000C9477000C9477000C94770034
:100070000C948F020C9477000C9477000C9477000A
:100080000C9477000C9477000C9477000C94770014
:100090000C9477000C9477000C9477000C94770004
:1000A0000C9477000C9477000C9477000C947700F4
:1000B0000C94770011241FBECFEFD8E0DEBFCDBF78
:1000C00011E0A0E0B1E0ECEBFAE002C005900D9287
:1000D000AC30B107D9F722E0ACE0B1E001C01D922D
:1000E000A531B207E1F70E94B5020C945C050C94AF
:1000F00000001F920F920FB60F9211248F938091E0
:100100000C018F5F80930C018F910F900FBE0F90A9
:100110001F90189582E08093B00095E09093B10015
:1001200093E69093B300809370000895CF92DF928E
:10013000EF92FF92E0E7F0E080818D7F80838091F5
:100140000C01882309F441C020E233E0829F600162
:10015000839FD00C1124E0910601F09107013097A4
:1001600091F120E00D2C000CEE08FF0880819181B8
:10017000A281B381AC01BD014150510961097109EE
:100180004E3F5F4F6F4F7F4F90F4C816D906EA0677
:10019000FB0628F0108211821282138208C08C198B
:1001A0009D09AE09BF0980839183A283B3832F5F2A
:1001B000E22FF0E0EE0FFF1FEA5FFE4F0190F081AB
:1001C000E02D309799F610920C01E0E7F0E0808185
:1001D00082608083FF90EF90DF90CF90089510921F
:1001E000C50087E68093C40088E98093C10086E05B
:1001F0008093C2000895549A5C98E1ECF0E080810D
:10020000877F8083808180688083519808951092D1
:10021000CD0087E68093CC0088E98093C90086E012
:100220008093CA000895259A2D9AE9ECF0E0808128
:100230008860808380818F7780830895E8ECF0E088
:10024000908195FFFDCF8093CE000895CF93DF93EB
:10025000EC018881882361F021960E941E018FE3C2
:100260009FE10197F1F700C0000089918111F5CF5E
:10027000DF91CF91089510920D0181E080932C01C0
:100280000E943B020E944102089580910D0181303D
:10029000F1F138F0823009F4ACC0833009F46DC05C
:1002A000089580910902811107C081E080930D01BA
:1002B0000E94460210922C0180910902823069F45A
:1002C00083E080930D01809108020E944B0280918F
:1002D00008028093170110922C018091090283304B
:1002E00009F0C8C082E080930D010E94410281E0C4
:1002F00080932C0180E492E4AFE0B0E0809313019E
:1003000090931401A0931501B09316010895809164
:100310000902813039F410920D010E94410281E0FE
:1003200080932C0180910902823069F483E08093EC
:100330000D01809108020E944B0280910802809377
:10034000170110922C0180910902833009F092C0AC
:1003500082E080930D010E94410281E080932C0194
:1003600080E492E4AFE0B0E0809313019093140135
:10037000A0931501B0931601089580910802909101
:100380001701981731F00E944B0280910802809368
:10039000170180910902811107C081E080930D014E
:1003A0000E94460210922C0180910902813039F49A
:1003B00010920D010E94410281E080932C018091F6
:1003C0000902833009F056C082E080930D010E943B
:1003D000410281E080932C0180E492E4AFE0B0E040
:1003E0008093130190931401A0931501B09316010B
:1003F00008958091130190911401A0911501B0917D
:100400001601892B8A2B8B2B71F40E94500280E4F9
:1004100092E4AFE0B0E08093130190931401A093B5
:100420001501B093160180910902811107C081E086
:1004300080930D010E94460210922C0180910902C6
:10044000813039F410920D010E94410281E08093C5
:100450002C0180910902823069F483E080930D01C0
:10046000809108020E944B0280910802809317013C
:1004700010922C010895569A83EC84BD82E085BDCC
:10048000089584B58F7384BD5E98089584B58F7385
:1004900084BD5E9A089594B5906C94BD87BD08950F
:1004A0009BB180E489278BB908958091110188233D
:1004B00019F0813031F00AC00E9445010E94DB0230
:1004C00008950E94E80410921101089510921101FC
:1004D00008951F920F920FB60F9211248F939F933E
:1004E000EF93FF93809110019091C600E82FF0E008
:1004F000EE55FE4F908391E090931101833618F0F2
:100500001092100103C08F5F80931001FF91EF9153
:100510009F918F910F900FBE0F901F9018951F9273
:100520000F920FB60F9211248F939F93EF93FF9327
:1005300080910E019091CE00E82FF0E0E35CFE4F39
:10054000908391E090931101833618F010920E0180
:1005500003C08F5F80930E01FF91EF919F918F9168
:100560000F900FBE0F901F9018950E948A000E9456
:10057000C9020E943B0178940E94EF000E9407018B
:100580000E94FB000E9413010E9496000E945502E7
:10059000FBCF82E080931201579A5F9880E097E842
:1005A000A3E9B3E080930B0290930C02A0930D0299
:1005B000B0930E020895EF92FF920F931F93CF9383
:1005C000DF9380912C01811110C080E492E4AFE0B0
:1005D000B0E080930B0290930C02A0930D02B093B5
:1005E0000E0282E08093120194C08091120181304A
:1005F00009F446C020F0823009F09AC08AC080E039
:100600000E948C040E94C2030E94290400913B01B5
:1006100010913C0140910A02A4E2B1E0CCE2D1E0A9
:100620000F2EFFE2EF2EF1E0FF2EF02D6BE371E0D5
:100630002D913D912017310750F4F701819191914F
:100640008217930708F44F5FE617F707B9F7AC175F
:10065000BD0771F740930A024D3020F083E080938C
:10066000A10102C01092A101440F440F440F8091D8
:10067000A101482B4093A10182E08093120158C050
:100680005F9A0E94290400913B0110913C01409126
:100690000A02A4E2B1E0CCE2D1E00F2EFFE2EF2E9D
:1006A000F1E0FF2EF02D6BE371E02D913D912017CD
:1006B000310750F4F701819191918217930708F463
:1006C0004F5FE617F707B9F7AC17BD0771F740930F
:1006D0000A024D3020F083E08093A10102C0109205
:1006E000A101440F440F440F8091A101482B409376
:1006F000A10182E08093120180E492E4AFE0B0E0D7
:1007000080930B0290930C02A0930D02B0930E0203
:100710000FC080910B0290910C02A0910D02B0913C
:100720000E02892B8A2B8B2B19F481E08093120106
:10073000DF91CF911F910F91FF90EF9008958F70EF
:10074000806C80937C0086E880937A0024E030E01F
:1007500040E050E0EAE7F0E0A8E7B0E09081906484
:100760009083908194FFFDCF8D919C911197480FBC
:10077000591F2150310991F7CA0196958795969591
:1007800087950895FF920F931F93CF93DF9380E097
:100790000E949F03C8E1D1E00F2EFBE1FF2EF02D58
:1007A0009C01F29EC001F39E900D112403EC12E017
:1007B000B8010E9448057983688381E00E949F0305
:1007C0009C01F29EC001F39E900D1124B8010E947D
:1007D00048057B836A8382E00E949F039C01F29E0E
:1007E000C001F39E900D1124B8010E9448057D833D
:1007F0006C8383E00E949F039C01F29EC001F39EE4
:10080000900D1124B8010E9448057F836E8384E017
:100810000E949F039C01F29EC001F39E900D112443
:10082000B8010E9448057987688785E00E949F0388
:100830009C01F29EC001F39E900D1124B8010E940C
:1008400048057B876A87DF91CF911F910F91FF90B9
:100850000895CF92DF92FF920F931F93CF93DF9370
:1008600084E00E949F038C0180E00E949F03C4E209
:10087000D1E0081B190B0F2EFBE1FF2EF02DF09E8F
:10088000C001F19E900D112403EC12E0B8010E940A
:1008900048057983688385E00E949F036C0181E0AD
:1008A0000E949F03C81AD90AFC9CC001FD9C900DB0
:1008B0001124B8010E9448057B836A8384E00E946A
:1008C0009F036C0182E00E949F03C81AD90AFC9C16
:1008D000C001FD9C900D1124B8010E9448057D8344
:1008E0006C8385E00E949F036C0183E00E949F035C
:1008F000C81AD90AFC9CC001FD9C900D1124B801B6
:100900000E9448057F836E83DF91CF911F910F91E5
:10091000FF90DF90CF900895CF93C82F86E00E947C
:100920009F03CC2351F045E1489F9001499F300D32
:1009300011243093070220930602CF910895E2E13B
:10094000F2E0809105018F5F808320910101309159
:100950000201C9010196929582958F7089279F7037
:1009600089279091000140E2949F800D112481839A
:100970002F5F8091040190E1299F800D11248283D3
:100980000895EFE0F2E0809105018B5F8083809114
:100990000101909102019C013695279521832091B8
:1009A00003019091040130E2239F900D112487955B
:1009B00088278795890F8283089580910F01833658
:1009C00018F010920F0108958F5F80930F01089522
:1009D000CF939091100180910F01282F30E0692F63
:1009E00070E0A9014D5F5F4F641775071CF49817FD
:1009F00008F04CC0F901EE55FE4FC0819C2F907F4E
:100A00002091050129133FC00E94DD04E0910F01F0
:100A1000F0E0EE55FE4F4081242F207E30E08091A3
:100A2000000150E2859FC00111242817390771F594
:100A3000CF70C13059F54F7120E1429FC0011124A0
:100A400090930201809301010E94DD04E0910F0167
:100A5000F0E0EE55FE4F208122952F70809101012C
:100A600090910201820F911D9093020180930101E8
:100A70000E94DD040E949F040E94C10482E192E072
:100A80000E94260103C08F5F80930F01CF910895CC
:100A9000AA1BBB1B51E107C0AA1FBB1FA617B707A4
:100AA00010F0A61BB70B881F991F5A95A9F78095C0
:0C0AB0009095BC01CD010895F894FFCF93
:0C0ABC0001C1000209A00B0213010000A0
:00000001FF
